{
  "_format": "hh-sol-artifact-1",
  "contractName": "ApparelMarketplace",
  "sourceName": "contracts/ApparelMarketplace.sol",
  "abi": [
    {
      "anonymous": false,
      "inputs": [
        {
          "indexed": false,
          "internalType": "address",
          "name": "previousAdmin",
          "type": "address"
        },
        {
          "indexed": false,
          "internalType": "address",
          "name": "newAdmin",
          "type": "address"
        }
      ],
      "name": "AdminChanged",
      "type": "event"
    },
    {
      "anonymous": false,
      "inputs": [
        {
          "indexed": true,
          "internalType": "address",
          "name": "beacon",
          "type": "address"
        }
      ],
      "name": "BeaconUpgraded",
      "type": "event"
    },
    {
      "anonymous": false,
      "inputs": [
        {
          "indexed": true,
          "internalType": "address",
          "name": "previousOwner",
          "type": "address"
        },
        {
          "indexed": true,
          "internalType": "address",
          "name": "newOwner",
          "type": "address"
        }
      ],
      "name": "OwnershipTransferred",
      "type": "event"
    },
    {
      "anonymous": false,
      "inputs": [
        {
          "indexed": true,
          "internalType": "address",
          "name": "implementation",
          "type": "address"
        }
      ],
      "name": "Upgraded",
      "type": "event"
    },
    {
      "inputs": [],
      "name": "NFTA",
      "outputs": [
        {
          "internalType": "address",
          "name": "",
          "type": "address"
        }
      ],
      "stateMutability": "view",
      "type": "function"
    },
    {
      "inputs": [],
      "name": "NFTATreasury",
      "outputs": [
        {
          "internalType": "address",
          "name": "",
          "type": "address"
        }
      ],
      "stateMutability": "view",
      "type": "function"
    },
    {
      "inputs": [
        {
          "internalType": "address",
          "name": "_nftAddress",
          "type": "address"
        },
        {
          "internalType": "uint256",
          "name": "_tokenId",
          "type": "uint256"
        },
        {
          "internalType": "bool",
          "name": "_isMetis",
          "type": "bool"
        }
      ],
      "name": "buyToken",
      "outputs": [],
      "stateMutability": "payable",
      "type": "function"
    },
    {
      "inputs": [
        {
          "internalType": "address",
          "name": "_nftAddress",
          "type": "address"
        },
        {
          "internalType": "uint256",
          "name": "_tokenId",
          "type": "uint256"
        }
      ],
      "name": "cancelAuction",
      "outputs": [],
      "stateMutability": "nonpayable",
      "type": "function"
    },
    {
      "inputs": [
        {
          "internalType": "address",
          "name": "_nftAddress",
          "type": "address"
        },
        {
          "internalType": "uint256",
          "name": "_tokenId",
          "type": "uint256"
        }
      ],
      "name": "endAuction",
      "outputs": [],
      "stateMutability": "nonpayable",
      "type": "function"
    },
    {
      "inputs": [],
      "name": "getListedNFTs",
      "outputs": [
        {
          "internalType": "address[]",
          "name": "",
          "type": "address[]"
        }
      ],
      "stateMutability": "view",
      "type": "function"
    },
    {
      "inputs": [
        {
          "internalType": "address",
          "name": "_nftAddress",
          "type": "address"
        }
      ],
      "name": "getListedTokenIds",
      "outputs": [
        {
          "internalType": "uint256[]",
          "name": "",
          "type": "uint256[]"
        }
      ],
      "stateMutability": "view",
      "type": "function"
    },
    {
      "inputs": [],
      "name": "getNumberOfListedNFTs",
      "outputs": [
        {
          "internalType": "uint256",
          "name": "",
          "type": "uint256"
        }
      ],
      "stateMutability": "view",
      "type": "function"
    },
    {
      "inputs": [],
      "name": "getPeakAddress",
      "outputs": [
        {
          "internalType": "contract IERC20",
          "name": "",
          "type": "address"
        }
      ],
      "stateMutability": "view",
      "type": "function"
    },
    {
      "inputs": [
        {
          "internalType": "address",
          "name": "_nftAddress",
          "type": "address"
        },
        {
          "internalType": "uint256",
          "name": "_tokenId",
          "type": "uint256"
        }
      ],
      "name": "getRoyaltyAmount",
      "outputs": [
        {
          "internalType": "uint256",
          "name": "",
          "type": "uint256"
        }
      ],
      "stateMutability": "view",
      "type": "function"
    },
    {
      "inputs": [
        {
          "internalType": "contract IERC20",
          "name": "_peak",
          "type": "address"
        },
        {
          "internalType": "address",
          "name": "_NFTA",
          "type": "address"
        },
        {
          "internalType": "address",
          "name": "_NFTATreasury",
          "type": "address"
        }
      ],
      "name": "initialize",
      "outputs": [],
      "stateMutability": "nonpayable",
      "type": "function"
    },
    {
      "inputs": [
        {
          "internalType": "address",
          "name": "_nftAddress",
          "type": "address"
        },
        {
          "internalType": "uint256",
          "name": "_tokenId",
          "type": "uint256"
        },
        {
          "internalType": "uint256",
          "name": "_priceMetis",
          "type": "uint256"
        },
        {
          "internalType": "uint256",
          "name": "_pricePeak",
          "type": "uint256"
        },
        {
          "internalType": "uint256",
          "name": "_royaltyFees",
          "type": "uint256"
        }
      ],
      "name": "listTokenToMarketplace",
      "outputs": [],
      "stateMutability": "nonpayable",
      "type": "function"
    },
    {
      "inputs": [
        {
          "internalType": "address",
          "name": "",
          "type": "address"
        },
        {
          "internalType": "uint256",
          "name": "",
          "type": "uint256"
        }
      ],
      "name": "nftDetails",
      "outputs": [
        {
          "internalType": "address",
          "name": "tokenOwner",
          "type": "address"
        },
        {
          "internalType": "address",
          "name": "secondaryOwner",
          "type": "address"
        },
        {
          "internalType": "contract IERC721",
          "name": "nftAddress",
          "type": "address"
        },
        {
          "internalType": "uint256",
          "name": "tokenId",
          "type": "uint256"
        },
        {
          "internalType": "uint256",
          "name": "priceMetis",
          "type": "uint256"
        },
        {
          "internalType": "uint256",
          "name": "pricePeak",
          "type": "uint256"
        },
        {
          "internalType": "uint256",
          "name": "royaltyFee",
          "type": "uint256"
        },
        {
          "internalType": "uint256",
          "name": "listedTime",
          "type": "uint256"
        },
        {
          "internalType": "uint256",
          "name": "updateTime",
          "type": "uint256"
        },
        {
          "internalType": "bool",
          "name": "isForSale",
          "type": "bool"
        },
        {
          "internalType": "bool",
          "name": "isAlreadyListed",
          "type": "bool"
        }
      ],
      "stateMutability": "view",
      "type": "function"
    },
    {
      "inputs": [
        {
          "internalType": "address",
          "name": "",
          "type": "address"
        },
        {
          "internalType": "address",
          "name": "",
          "type": "address"
        },
        {
          "internalType": "uint256",
          "name": "",
          "type": "uint256"
        },
        {
          "internalType": "bytes",
          "name": "",
          "type": "bytes"
        }
      ],
      "name": "onERC721Received",
      "outputs": [
        {
          "internalType": "bytes4",
          "name": "",
          "type": "bytes4"
        }
      ],
      "stateMutability": "nonpayable",
      "type": "function"
    },
    {
      "inputs": [],
      "name": "owner",
      "outputs": [
        {
          "internalType": "address",
          "name": "",
          "type": "address"
        }
      ],
      "stateMutability": "view",
      "type": "function"
    },
    {
      "inputs": [
        {
          "internalType": "address",
          "name": "_nftAddress",
          "type": "address"
        },
        {
          "internalType": "uint256",
          "name": "_tokenId",
          "type": "uint256"
        },
        {
          "internalType": "uint256",
          "name": "_amount",
          "type": "uint256"
        }
      ],
      "name": "participateInAuction",
      "outputs": [],
      "stateMutability": "payable",
      "type": "function"
    },
    {
      "inputs": [],
      "name": "platformFee",
      "outputs": [
        {
          "internalType": "uint256",
          "name": "",
          "type": "uint256"
        }
      ],
      "stateMutability": "view",
      "type": "function"
    },
    {
      "inputs": [],
      "name": "proxiableUUID",
      "outputs": [
        {
          "internalType": "bytes32",
          "name": "",
          "type": "bytes32"
        }
      ],
      "stateMutability": "view",
      "type": "function"
    },
    {
      "inputs": [
        {
          "internalType": "address",
          "name": "_nftAddress",
          "type": "address"
        },
        {
          "internalType": "uint256",
          "name": "_tokenId",
          "type": "uint256"
        }
      ],
      "name": "refundAuctionTokens",
      "outputs": [],
      "stateMutability": "payable",
      "type": "function"
    },
    {
      "inputs": [],
      "name": "renounceOwnership",
      "outputs": [],
      "stateMutability": "nonpayable",
      "type": "function"
    },
    {
      "inputs": [
        {
          "internalType": "uint256",
          "name": "_fees",
          "type": "uint256"
        }
      ],
      "name": "setPlatformFees",
      "outputs": [],
      "stateMutability": "nonpayable",
      "type": "function"
    },
    {
      "inputs": [
        {
          "internalType": "address",
          "name": "_nftAddress",
          "type": "address"
        },
        {
          "internalType": "uint256",
          "name": "_tokenId",
          "type": "uint256"
        },
        {
          "internalType": "uint256",
          "name": "_startTime",
          "type": "uint256"
        },
        {
          "internalType": "uint256",
          "name": "_endTime",
          "type": "uint256"
        },
        {
          "internalType": "uint256",
          "name": "_baseAmount",
          "type": "uint256"
        },
        {
          "internalType": "bool",
          "name": "_isMetis",
          "type": "bool"
        }
      ],
      "name": "startAuction",
      "outputs": [],
      "stateMutability": "nonpayable",
      "type": "function"
    },
    {
      "inputs": [
        {
          "internalType": "address",
          "name": "newOwner",
          "type": "address"
        }
      ],
      "name": "transferOwnership",
      "outputs": [],
      "stateMutability": "nonpayable",
      "type": "function"
    },
    {
      "inputs": [
        {
          "internalType": "address",
          "name": "_nftAddress",
          "type": "address"
        },
        {
          "internalType": "uint256",
          "name": "_tokenId",
          "type": "uint256"
        },
        {
          "internalType": "uint256",
          "name": "_priceMetis",
          "type": "uint256"
        },
        {
          "internalType": "uint256",
          "name": "_pricePeak",
          "type": "uint256"
        },
        {
          "internalType": "uint256",
          "name": "_royalty",
          "type": "uint256"
        },
        {
          "internalType": "bool",
          "name": "_isForSale",
          "type": "bool"
        }
      ],
      "name": "updateListedToken",
      "outputs": [],
      "stateMutability": "nonpayable",
      "type": "function"
    },
    {
      "inputs": [
        {
          "internalType": "address",
          "name": "newImplementation",
          "type": "address"
        }
      ],
      "name": "upgradeTo",
      "outputs": [],
      "stateMutability": "nonpayable",
      "type": "function"
    },
    {
      "inputs": [
        {
          "internalType": "address",
          "name": "newImplementation",
          "type": "address"
        },
        {
          "internalType": "bytes",
          "name": "data",
          "type": "bytes"
        }
      ],
      "name": "upgradeToAndCall",
      "outputs": [],
      "stateMutability": "payable",
      "type": "function"
    }
  ],
  "bytecode": "0x60a06040523060805234801561001457600080fd5b5060805161308661004c60003960008181610c2101528181610c6101528181610d0101528181610d410152610dd401526130866000f3fe6080604052600436106101815760003560e01c806379caee8c116100d1578063affa59821161008a578063c0c53b8b11610064578063c0c53b8b14610529578063e3a21aca14610549578063f2fde38b1461055e578063f8201e0f1461057e57600080fd5b8063affa5982146103ff578063b0020eb814610412578063b8b0ccf81461050957600080fd5b806379caee8c14610343578063859b97fe1461036357806388cedbc4146103835780638da5cb5b146103a357806390b74f1c146103c1578063a88ef500146103e157600080fd5b806326232a2e1161013e57806352d1902d1161011857806352d1902d146102e6578063607a751e146102fb57806367ee8a401461030e578063715018a61461032e57600080fd5b806326232a2e1461028f5780633659cfe6146102b35780634f1ef286146102d357600080fd5b8063012386f01461018657806302172523146101b15780630462c21a146101e9578063150b7a021461020b5780631f78536e1461024f578063211a6b5214610262575b600080fd5b34801561019257600080fd5b5061019b61059e565b6040516101a8919061290b565b60405180910390f35b3480156101bd57600080fd5b5060cb546101d1906001600160a01b031681565b6040516001600160a01b0390911681526020016101a8565b3480156101f557600080fd5b5061020961020436600461296d565b610600565b005b34801561021757600080fd5b50610236610226366004612a54565b630a85bd0160e11b949350505050565b6040516001600160e01b031990911681526020016101a8565b61020961025d366004612ace565b6107cc565b34801561026e57600080fd5b5061028261027d366004612b10565b610baa565b6040516101a89190612b2d565b34801561029b57600080fd5b506102a560c95481565b6040519081526020016101a8565b3480156102bf57600080fd5b506102096102ce366004612b10565b610c16565b6102096102e1366004612b65565b610cf6565b3480156102f257600080fd5b506102a5610dc7565b610209610309366004612bb5565b610e7a565b34801561031a57600080fd5b5060ca546101d1906001600160a01b031681565b34801561033a57600080fd5b5061020961108c565b34801561034f57600080fd5b5061020961035e366004612bea565b6110c2565b34801561036f57600080fd5b5061020961037e366004612c03565b6110f1565b34801561038f57600080fd5b5061020961039e366004612c03565b6111eb565b3480156103af57600080fd5b506097546001600160a01b03166101d1565b3480156103cd57600080fd5b506102a56103dc366004612c03565b6118f0565b3480156103ed57600080fd5b5060cf546001600160a01b03166101d1565b61020961040d366004612c03565b61193c565b34801561041e57600080fd5b506104a361042d366004612c03565b60cc60209081526000928352604080842090915290825290208054600182015460028301546003840154600485015460058601546006870154600788015460088901546009909901546001600160a01b039889169997891698909616969495939492939192909160ff808216916101009004168b565b604080516001600160a01b039c8d1681529a8c1660208c015298909a16978901979097526060880195909552608087019390935260a086019190915260c085015260e08401526101008301521515610120820152901515610140820152610160016101a8565b34801561051557600080fd5b50610209610524366004612c2f565b611bf8565b34801561053557600080fd5b50610209610544366004612c8d565b611d34565b34801561055557600080fd5b5060ce546102a5565b34801561056a57600080fd5b50610209610579366004612b10565b611e3a565b34801561058a57600080fd5b50610209610599366004612c2f565b611ed2565b606060ce8054806020026020016040519081016040528092919081815260200182805480156105f657602002820191906000526020600020905b81546001600160a01b031681526001909101906020018083116105d8575b5050505050905090565b6001600160a01b038516600090815260cc6020908152604080832087845290915290206009015485908590610100900460ff16156106765760405162461bcd60e51b815260206004820152600e60248201526d105b1c9958591e481b1a5cdd195960921b60448201526064015b60405180910390fd5b6001600160a01b038716600081815260cc602090815260408083208a8452909152908190208054336001600160a01b0319918216811783556001830180548316821790556002830180549092168517909155600382018a90556004808301899055600683018890554260078401819055600884015560098301805461ffff19166101011790559251632142170760e11b8152928301523060248301526044820189905291906342842e0e90606401600060405180830381600087803b15801561073e57600080fd5b505af1158015610752573d6000803e3d6000fd5b505060ce805460018181019092557fd36cd1c74ef8d7326d8021b776c18fb5a5724b7f7bc93c2f42e43e10ef27d12a0180546001600160a01b03909c166001600160a01b0319909c168c17905560009a8b5260cd602090815260408c20805492830181558c52909a20909901979097555050505050505050565b6001600160a01b038316600090815260cc602090815260408083208584529091529020600901548390839060ff61010090910416151560011461083e5760405162461bcd60e51b815260206004820152600a602482015269139bdd081b1a5cdd195960b21b604482015260640161066d565b6001600160a01b038516600090815260cc602090815260408083208784528252808320600a810190925290912060070154610100900460ff16156108ba5760405162461bcd60e51b81526020600482015260136024820152722a37b5b2b71034b99037b71030bab1ba34b7b760691b604482015260640161066d565b8315610a2c5760008060006108d28460040154611fe9565b935093509350508360040154341461091f5760405162461bcd60e51b815260206004820152601060248201526f496e636f7272656e637420707269636560801b604482015260640161066d565b60ca546040516001600160a01b039091169083156108fc029084906000818181858888f19350505050158015610959573d6000803e3d6000fd5b5060cb546040516001600160a01b039091169084156108fc029085906000818181858888f19350505050158015610994573d6000803e3d6000fd5b5083546001600160a01b03166108fc6109ad8b8b6118f0565b6040518115909202916000818181858888f193505050501580156109d5573d6000803e3d6000fd5b5060018401546001600160a01b03166108fc6109fb6109f48c8c6118f0565b8490612038565b6040518115909202916000818181858888f19350505050158015610a23573d6000803e3d6000fd5b50505050610b0a565b6000806000610a3e8460050154612054565b93509350935050610a5433308660050154612082565b8354610a72906001600160a01b0316610a6d8b8b6118f0565b612148565b60cf54604051630852cd8d60e31b8152600481018590526001600160a01b03909116906342966c6890602401600060405180830381600087803b158015610ab857600080fd5b505af1158015610acc573d6000803e3d6000fd5b505060ca54610ae792506001600160a01b0316905083612148565b6001840154610b06906001600160a01b0316610a6d6109f48c8c6118f0565b5050505b604051632142170760e11b8152306004820152336024820152604481018690526001600160a01b038716906342842e0e90606401600060405180830381600087803b158015610b5857600080fd5b505af1158015610b6c573d6000803e3d6000fd5b5050600060048401819055600584015550506001810180546001600160a01b03191633179055426008820155600901805460ff191690555050505050565b6001600160a01b038116600090815260cd6020908152604091829020805483518184028101840190945280845260609392830182828015610c0a57602002820191906000526020600020905b815481526020019060010190808311610bf6575b50505050509050919050565b306001600160a01b037f0000000000000000000000000000000000000000000000000000000000000000161415610c5f5760405162461bcd60e51b815260040161066d90612ccd565b7f00000000000000000000000000000000000000000000000000000000000000006001600160a01b0316610ca860008051602061300a833981519152546001600160a01b031690565b6001600160a01b031614610cce5760405162461bcd60e51b815260040161066d90612d19565b610cd7816121fd565b60408051600080825260208201909252610cf391839190612227565b50565b306001600160a01b037f0000000000000000000000000000000000000000000000000000000000000000161415610d3f5760405162461bcd60e51b815260040161066d90612ccd565b7f00000000000000000000000000000000000000000000000000000000000000006001600160a01b0316610d8860008051602061300a833981519152546001600160a01b031690565b6001600160a01b031614610dae5760405162461bcd60e51b815260040161066d90612d19565b610db7826121fd565b610dc382826001612227565b5050565b6000306001600160a01b037f00000000000000000000000000000000000000000000000000000000000000001614610e675760405162461bcd60e51b815260206004820152603860248201527f555550535570677261646561626c653a206d757374206e6f742062652063616c60448201527f6c6564207468726f7567682064656c656761746563616c6c0000000000000000606482015260840161066d565b5060008051602061300a83398151915290565b6001600160a01b038316600090815260cc602090815260408083208584528252808320600a019091529020600701548390839060ff610100909104161515600114610ed75760405162461bcd60e51b815260040161066d90612d65565b6001600160a01b038516600090815260cc602090815260408083208784528252808320600a8101909252909120600201544210610f265760405162461bcd60e51b815260040161066d90612da7565b6000858152600a8201602052604090206007015460ff1615610fc7576000858152600a82016020526040902060030154341015610f9c5760405162461bcd60e51b8152602060048201526014602482015273125b9d985b1a59081b595d1a5cc8185b5bdd5b9d60621b604482015260640161066d565b6000858152600a82016020908152604082206006018054600181018255908352912034910155611052565b6000858152600a820160205260409020600301548410156110205760405162461bcd60e51b8152602060048201526013602482015272125b9d985b1a59081c19585ac8185b5bdd5b9d606a1b604482015260640161066d565b61102b333086612082565b6000858152600a820160209081526040822060060180546001810182559083529120018490555b6000948552600a016020908152604085206005018054600181018255908652942090930180546001600160a01b0319163317905550505050565b6097546001600160a01b031633146110b65760405162461bcd60e51b815260040161066d90612dcd565b6110c06000612392565b565b6097546001600160a01b031633146110ec5760405162461bcd60e51b815260040161066d90612dcd565b60c955565b6001600160a01b038216600090815260cc602090815260408083208484528252808320600a019091529020600701548290829060ff61010090910416151560011461114e5760405162461bcd60e51b815260040161066d90612d65565b6001600160a01b03808516600090815260cc60209081526040808320878452909152902060010154859185911633146111995760405162461bcd60e51b815260040161066d90612e02565b5050506001600160a01b03909216600090815260cc60209081526040808320938352928152828220600a01905290812060078101805461ff001916905560018101829055600281018290556003015550565b6001600160a01b038216600090815260cc602090815260408083208484528252808320600a019091529020600701548290829060ff6101009091041615156001146112485760405162461bcd60e51b815260040161066d90612d65565b6001600160a01b03808516600090815260cc60209081526040808320878452909152902060010154859185911633146112935760405162461bcd60e51b815260040161066d90612e02565b6001600160a01b038616600090815260cc602090815260408083208884528252808320600a81019092529091206002015442116112e25760405162461bcd60e51b815260040161066d90612da7565b6000868152600a82016020908152604080832060078101805461ff00191690556006018054825181850281018501909352808352919290919083018282801561134a57602002820191906000526020600020905b815481526020019060010190808311611336575b50505050509050600082600a0160008981526020019081526020016000206005018054806020026020016040519081016040528092919081815260200182805480156113bf57602002820191906000526020600020905b81546001600160a01b031681526001909101906020018083116113a1575b50505050509050805182511461140f5760405162461bcd60e51b81526020600482015260156024820152744c656e6774682073686f756c642062652073616d6560581b604482015260640161066d565b60005b825161141f906001612038565b8110156115bf5782611432826001612e40565b8151811061144257611442612e58565b602002602001015183828151811061145c5761145c612e58565b602002602001015111156115ad57600083611478836001612e40565b8151811061148857611488612e58565b602002602001015190506000838360016114a29190612e40565b815181106114b2576114b2612e58565b602002602001015190508483815181106114ce576114ce612e58565b6020026020010151858460016114e49190612e40565b815181106114f4576114f4612e58565b60200260200101818152505083838151811061151257611512612e58565b6020026020010151848460016115289190612e40565b8151811061153857611538612e58565b60200260200101906001600160a01b031690816001600160a01b0316815250508185848151811061156b5761156b612e58565b6020026020010181815250508084848151811061158a5761158a612e58565b60200260200101906001600160a01b031690816001600160a01b03168152505050505b806115b781612e6e565b915050611412565b506000888152600a8401602052604090206007015460ff1615611724576000806000611617856115fa6001885161203890919063ffffffff16565b8151811061160a5761160a612e58565b6020026020010151611fe9565b60ca5460405193975091955093506001600160a01b0316915083156108fc029084906000818181858888f19350505050158015611658573d6000803e3d6000fd5b5060cb546040516001600160a01b039091169084156108fc029085906000818181858888f19350505050158015611693573d6000803e3d6000fd5b5085546001600160a01b03166108fc6116ac8e8e6118f0565b6040518115909202916000818181858888f193505050501580156116d4573d6000803e3d6000fd5b5060018601546001600160a01b03166108fc6116f36109f48f8f6118f0565b6040518115909202916000818181858888f1935050505015801561171b573d6000803e3d6000fd5b505050506117fd565b60008060006117368660050154612054565b9350935093505061174c33308860050154612082565b8554611765906001600160a01b0316610a6d8e8e6118f0565b60cf54604051630852cd8d60e31b8152600481018590526001600160a01b03909116906342966c6890602401600060405180830381600087803b1580156117ab57600080fd5b505af11580156117bf573d6000803e3d6000fd5b505060ca546117da92506001600160a01b0316905083612148565b60018601546117f9906001600160a01b0316610a6d6109f48f8f6118f0565b5050505b8051819061180c906001612038565b8151811061181c5761181c612e58565b6020908102919091010151600184810180546001600160a01b0319166001600160a01b0390931692909217909155600060048501819055600585015542600885015560098401805460ff19169055815182916118789190612038565b8151811061188857611888612e58565b60209081029190910181015160008a8152600a8601909252604082206004810180546001600160a01b0319166001600160a01b0390931692831790556001810183905560028101839055600301919091556118e5908a908a6123e4565b505050505050505050565b6001600160a01b038216600090815260cc6020908152604080832084845290915281206006810154600590910154611935916127109161192f91612639565b90612669565b9392505050565b6001600160a01b038216600090815260cc602090815260408083208484528252808320600a810190925290912060070154610100900460ff16156119c25760405162461bcd60e51b815260206004820152601960248201527f41756374696f6e206973206e6f7420656e646564207965742e00000000000000604482015260640161066d565b6000828152600a82016020908152604080832060060180548251818502810185019093528083529192909190830182828015611a1d57602002820191906000526020600020905b815481526020019060010190808311611a09575b50505050509050600082600a016000858152602001908152602001600020600501805480602002602001604051908101604052809291908181526020018280548015611a9257602002820191906000526020600020905b81546001600160a01b03168152600190910190602001808311611a74575b5050505050905060005b8251811015611be557818181518110611ab757611ab7612e58565b60200260200101516001600160a01b0316336001600160a01b03161415611bd3576000858152600a850160205260409020600401546001600160a01b03163314611b3c5760405162461bcd60e51b8152602060048201526016602482015275165bdd4818d85b881b9bdd0819d95d081c99599d5b9960521b604482015260640161066d565b6000858152600a8501602052604090206007015460ff1615611bb057336001600160a01b03166108fc848381518110611b7757611b77612e58565b60200260200101519081150290604051600060405180830381858888f19350505050158015611baa573d6000803e3d6000fd5b50611bd3565b611bd333848381518110611bc657611bc6612e58565b6020026020010151612148565b80611bdd81612e6e565b915050611a9c565b50611bf18533866123e4565b5050505050565b6001600160a01b03808716600090815260cc6020908152604080832089845290915290206001015487918791163314611c435760405162461bcd60e51b815260040161066d90612e02565b6001600160a01b038816600090815260cc602090815260408083208a84528252808320600a810190925290912060070154610100900460ff1615611cbf5760405162461bcd60e51b81526020600482015260136024820152722a37b5b2b71034b99037b71030bab1ba34b7b760691b604482015260640161066d565b4287118015611ccd57508587115b611ce95760405162461bcd60e51b815260040161066d90612da7565b6000978852600a0160205250506040909420600181019390935560028301919091556003820155600701805461ff00199215159290921661ffff199092169190911761010017905550565b600054610100900460ff16611d4f5760005460ff1615611d53565b303b155b611db65760405162461bcd60e51b815260206004820152602e60248201527f496e697469616c697a61626c653a20636f6e747261637420697320616c72656160448201526d191e481a5b9a5d1a585b1a5e995960921b606482015260840161066d565b600054610100900460ff16158015611dd8576000805461ffff19166101011790555b60cf80546001600160a01b038087166001600160a01b03199283161790925560ca805486841690831617905560cb80549285169290911691909117905560c860c955611e2261267e565b8015611e34576000805461ff00191690555b50505050565b6097546001600160a01b03163314611e645760405162461bcd60e51b815260040161066d90612dcd565b6001600160a01b038116611ec95760405162461bcd60e51b815260206004820152602660248201527f4f776e61626c653a206e6577206f776e657220697320746865207a65726f206160448201526564647265737360d01b606482015260840161066d565b610cf381612392565b6001600160a01b038616600090815260cc602090815260408083208884529091529020600901548690869060ff610100909104161515600114611f445760405162461bcd60e51b815260206004820152600a602482015269139bdd081b1a5cdd195960b21b604482015260640161066d565b6001600160a01b03808916600090815260cc602090815260408083208b845290915290206001015489918991163314611f8f5760405162461bcd60e51b815260040161066d90612e02565b505050506001600160a01b0395909516600090815260cc6020908152604080832096835295905293909320600481019290925560058201556006810191909155426008820155600901805460ff1916911515919091179055565b60008060008061200a61271061192f60c9548861263990919063ffffffff16565b9350612017826003612669565b92506120238484612038565b915061202f8585612038565b90509193509193565b60008282111561204a5761204a612e89565b6119358284612e9f565b60008060008061207561271061192f60c9548861263990919063ffffffff16565b9350612017826002612669565b60cf546040516323b872dd60e01b81526001600160a01b038581166004830152848116602483015260448201849052909116906323b872dd906064016020604051808303816000875af11580156120dd573d6000803e3d6000fd5b505050506040513d601f19601f820116820180604052508101906121019190612eb6565b6121435760405162461bcd60e51b8152602060048201526013602482015272151c985b9cd9995c999c9bdb4819985a5b1959606a1b604482015260640161066d565b505050565b60cf5460405163a9059cbb60e01b81526001600160a01b038481166004830152602482018490529091169063a9059cbb906044016020604051808303816000875af115801561219b573d6000803e3d6000fd5b505050506040513d601f19601f820116820180604052508101906121bf9190612eb6565b610dc35760405162461bcd60e51b815260206004820152600f60248201526e151c985b9cd9995c8819985a5b1959608a1b604482015260640161066d565b6097546001600160a01b03163314610cf35760405162461bcd60e51b815260040161066d90612dcd565b7f4910fdfa16fed3260ed0e7147f7cc6da11a60208b5b9406d12a635614ffd91435460ff161561225a57612143836126ad565b826001600160a01b03166352d1902d6040518163ffffffff1660e01b8152600401602060405180830381865afa9250505080156122b4575060408051601f3d908101601f191682019092526122b191810190612ed3565b60015b6123175760405162461bcd60e51b815260206004820152602e60248201527f45524331393637557067726164653a206e657720696d706c656d656e7461746960448201526d6f6e206973206e6f74205555505360901b606482015260840161066d565b60008051602061300a83398151915281146123865760405162461bcd60e51b815260206004820152602960248201527f45524331393637557067726164653a20756e737570706f727465642070726f786044820152681a58589b195555525160ba1b606482015260840161066d565b50612143838383612749565b609780546001600160a01b038381166001600160a01b0319831681179093556040519116919082907f8be0079c531659141344cd1fd0a4f28419497f9722a3daafe3b4186f6b6457e090600090a35050565b6001600160a01b038316600090815260cc602090815260408083208484529091528120905b6000838152600a83016020526040902060050154811015611bf1576000838152600a83016020526040902060050180548290811061244957612449612e58565b6000918252602090912001546001600160a01b038581169116141561262757805b6000848152600a8401602052604090206005015461248a90600190612e9f565b8110156125a8576000848152600a8401602052604090206005016124af826001612e40565b815481106124bf576124bf612e58565b6000918252602080832090910154868352600a8601909152604090912060050180546001600160a01b0390921691839081106124fd576124fd612e58565b600091825260208083209190910180546001600160a01b0319166001600160a01b039490941693909317909255858152600a850190915260409020600601612546826001612e40565b8154811061255657612556612e58565b906000526020600020015483600a016000868152602001908152602001600020600601828154811061258a5761258a612e58565b600091825260209091200155806125a081612e6e565b91505061246a565b506000838152600a8301602052604090206005018054806125cb576125cb612eec565b60008281526020808220830160001990810180546001600160a01b0319169055909201909255848252600a840190526040902060060180548061261057612610612eec565b600190038181906000526020600020016000905590555b8061263181612e6e565b915050612409565b6000806126468385612f02565b905083158061265d57508261265b8583612f21565b145b61193557611935612e89565b6000806126768385612f21565b949350505050565b600054610100900460ff166126a55760405162461bcd60e51b815260040161066d90612f43565b6110c061276e565b6001600160a01b0381163b61271a5760405162461bcd60e51b815260206004820152602d60248201527f455243313936373a206e657720696d706c656d656e746174696f6e206973206e60448201526c1bdd08184818dbdb9d1c9858dd609a1b606482015260840161066d565b60008051602061300a83398151915280546001600160a01b0319166001600160a01b0392909216919091179055565b6127528361279e565b60008251118061275f5750805b1561214357611e3483836127de565b600054610100900460ff166127955760405162461bcd60e51b815260040161066d90612f43565b6110c033612392565b6127a7816126ad565b6040516001600160a01b038216907fbc7cd75a20ee27fd9adebab32041f755214dbc6bffa90cc0225b39da2e5c2d3b90600090a250565b60606001600160a01b0383163b6128465760405162461bcd60e51b815260206004820152602660248201527f416464726573733a2064656c65676174652063616c6c20746f206e6f6e2d636f6044820152651b9d1c9858dd60d21b606482015260840161066d565b600080846001600160a01b0316846040516128619190612fba565b600060405180830381855af49150503d806000811461289c576040519150601f19603f3d011682016040523d82523d6000602084013e6128a1565b606091505b50915091506128c9828260405180606001604052806027815260200161302a602791396128d2565b95945050505050565b606083156128e1575081611935565b8251156128f15782518084602001fd5b8160405162461bcd60e51b815260040161066d9190612fd6565b6020808252825182820181905260009190848201906040850190845b8181101561294c5783516001600160a01b031683529284019291840191600101612927565b50909695505050505050565b6001600160a01b0381168114610cf357600080fd5b600080600080600060a0868803121561298557600080fd5b853561299081612958565b97602087013597506040870135966060810135965060800135945092505050565b634e487b7160e01b600052604160045260246000fd5b600082601f8301126129d857600080fd5b813567ffffffffffffffff808211156129f3576129f36129b1565b604051601f8301601f19908116603f01168101908282118183101715612a1b57612a1b6129b1565b81604052838152866020858801011115612a3457600080fd5b836020870160208301376000602085830101528094505050505092915050565b60008060008060808587031215612a6a57600080fd5b8435612a7581612958565b93506020850135612a8581612958565b925060408501359150606085013567ffffffffffffffff811115612aa857600080fd5b612ab4878288016129c7565b91505092959194509250565b8015158114610cf357600080fd5b600080600060608486031215612ae357600080fd5b8335612aee81612958565b9250602084013591506040840135612b0581612ac0565b809150509250925092565b600060208284031215612b2257600080fd5b813561193581612958565b6020808252825182820181905260009190848201906040850190845b8181101561294c57835183529284019291840191600101612b49565b60008060408385031215612b7857600080fd5b8235612b8381612958565b9150602083013567ffffffffffffffff811115612b9f57600080fd5b612bab858286016129c7565b9150509250929050565b600080600060608486031215612bca57600080fd5b8335612bd581612958565b95602085013595506040909401359392505050565b600060208284031215612bfc57600080fd5b5035919050565b60008060408385031215612c1657600080fd5b8235612c2181612958565b946020939093013593505050565b60008060008060008060c08789031215612c4857600080fd5b8635612c5381612958565b95506020870135945060408701359350606087013592506080870135915060a0870135612c7f81612ac0565b809150509295509295509295565b600080600060608486031215612ca257600080fd5b8335612cad81612958565b92506020840135612cbd81612958565b91506040840135612b0581612958565b6020808252602c908201527f46756e6374696f6e206d7573742062652063616c6c6564207468726f7567682060408201526b19195b1959d85d1958d85b1b60a21b606082015260800190565b6020808252602c908201527f46756e6374696f6e206d7573742062652063616c6c6564207468726f7567682060408201526b6163746976652070726f787960a01b606082015260800190565b60208082526022908201527f546f6b656e206973206e6f7420617661696c61626c6520666f7220617563746960408201526137b760f11b606082015260800190565b6020808252600c908201526b496e76616c69642074696d6560a01b604082015260600190565b6020808252818101527f4f776e61626c653a2063616c6c6572206973206e6f7420746865206f776e6572604082015260600190565b6020808252600e908201526d139bdd08185d5d1a1bdc9a5e995960921b604082015260600190565b634e487b7160e01b600052601160045260246000fd5b60008219821115612e5357612e53612e2a565b500190565b634e487b7160e01b600052603260045260246000fd5b6000600019821415612e8257612e82612e2a565b5060010190565b634e487b7160e01b600052600160045260246000fd5b600082821015612eb157612eb1612e2a565b500390565b600060208284031215612ec857600080fd5b815161193581612ac0565b600060208284031215612ee557600080fd5b5051919050565b634e487b7160e01b600052603160045260246000fd5b6000816000190483118215151615612f1c57612f1c612e2a565b500290565b600082612f3e57634e487b7160e01b600052601260045260246000fd5b500490565b6020808252602b908201527f496e697469616c697a61626c653a20636f6e7472616374206973206e6f74206960408201526a6e697469616c697a696e6760a81b606082015260800190565b60005b83811015612fa9578181015183820152602001612f91565b83811115611e345750506000910152565b60008251612fcc818460208701612f8e565b9190910192915050565b6020815260008251806020840152612ff5816040850160208701612f8e565b601f01601f1916919091016040019291505056fe360894a13ba1a3210667c828492db98dca3e2076cc3735a920a3ca505d382bbc416464726573733a206c6f772d6c6576656c2064656c65676174652063616c6c206661696c6564a2646970667358221220872df159a598e93f877dd4881e39d29dffb7e66ebcabb393b0c2135f817d87c764736f6c634300080b0033",
  "linkReferences": {},
  "deployedLinkReferences": {}
}