{
  "_format": "hh-sol-artifact-1",
  "contractName": "ApparelMarketplace",
  "sourceName": "contracts/ApparelMarketplace.sol",
  "abi": [
    {
      "anonymous": false,
      "inputs": [
        {
          "indexed": false,
          "internalType": "address",
          "name": "previousAdmin",
          "type": "address"
        },
        {
          "indexed": false,
          "internalType": "address",
          "name": "newAdmin",
          "type": "address"
        }
      ],
      "name": "AdminChanged",
      "type": "event"
    },
    {
      "anonymous": false,
      "inputs": [
        {
          "indexed": true,
          "internalType": "address",
          "name": "beacon",
          "type": "address"
        }
      ],
      "name": "BeaconUpgraded",
      "type": "event"
    },
    {
      "anonymous": false,
      "inputs": [
        {
          "indexed": true,
          "internalType": "address",
          "name": "previousOwner",
          "type": "address"
        },
        {
          "indexed": true,
          "internalType": "address",
          "name": "newOwner",
          "type": "address"
        }
      ],
      "name": "OwnershipTransferred",
      "type": "event"
    },
    {
      "anonymous": false,
      "inputs": [
        {
          "indexed": true,
          "internalType": "address",
          "name": "implementation",
          "type": "address"
        }
      ],
      "name": "Upgraded",
      "type": "event"
    },
    {
      "inputs": [],
      "name": "NFTA",
      "outputs": [
        {
          "internalType": "address",
          "name": "",
          "type": "address"
        }
      ],
      "stateMutability": "view",
      "type": "function"
    },
    {
      "inputs": [],
      "name": "NFTATreasury",
      "outputs": [
        {
          "internalType": "address",
          "name": "",
          "type": "address"
        }
      ],
      "stateMutability": "view",
      "type": "function"
    },
    {
      "inputs": [
        {
          "internalType": "address",
          "name": "_nftAddress",
          "type": "address"
        },
        {
          "internalType": "uint256",
          "name": "_tokenId",
          "type": "uint256"
        },
        {
          "internalType": "bool",
          "name": "_isMetis",
          "type": "bool"
        }
      ],
      "name": "buyToken",
      "outputs": [],
      "stateMutability": "payable",
      "type": "function"
    },
    {
      "inputs": [
        {
          "internalType": "address",
          "name": "_nftAddress",
          "type": "address"
        },
        {
          "internalType": "uint256",
          "name": "_tokenId",
          "type": "uint256"
        }
      ],
      "name": "endAuction",
      "outputs": [],
      "stateMutability": "nonpayable",
      "type": "function"
    },
    {
      "inputs": [],
      "name": "getListedNFTs",
      "outputs": [
        {
          "internalType": "address[]",
          "name": "",
          "type": "address[]"
        }
      ],
      "stateMutability": "view",
      "type": "function"
    },
    {
      "inputs": [
        {
          "internalType": "address",
          "name": "_nftAddress",
          "type": "address"
        }
      ],
      "name": "getListedTokenIds",
      "outputs": [
        {
          "internalType": "uint256[]",
          "name": "",
          "type": "uint256[]"
        }
      ],
      "stateMutability": "view",
      "type": "function"
    },
    {
      "inputs": [],
      "name": "getNumberOfListedNFTs",
      "outputs": [
        {
          "internalType": "uint256",
          "name": "",
          "type": "uint256"
        }
      ],
      "stateMutability": "view",
      "type": "function"
    },
    {
      "inputs": [],
      "name": "getPeakAddress",
      "outputs": [
        {
          "internalType": "contract IERC20",
          "name": "",
          "type": "address"
        }
      ],
      "stateMutability": "view",
      "type": "function"
    },
    {
      "inputs": [
        {
          "internalType": "address",
          "name": "_nftAddress",
          "type": "address"
        },
        {
          "internalType": "uint256",
          "name": "_tokenId",
          "type": "uint256"
        }
      ],
      "name": "getRoyaltyAmount",
      "outputs": [
        {
          "internalType": "uint256",
          "name": "",
          "type": "uint256"
        }
      ],
      "stateMutability": "view",
      "type": "function"
    },
    {
      "inputs": [
        {
          "internalType": "contract IERC20",
          "name": "_peak",
          "type": "address"
        },
        {
          "internalType": "address",
          "name": "_NFTA",
          "type": "address"
        },
        {
          "internalType": "address",
          "name": "_NFTATreasury",
          "type": "address"
        }
      ],
      "name": "initialize",
      "outputs": [],
      "stateMutability": "nonpayable",
      "type": "function"
    },
    {
      "inputs": [
        {
          "internalType": "address",
          "name": "_nftAddress",
          "type": "address"
        },
        {
          "internalType": "uint256",
          "name": "_tokenId",
          "type": "uint256"
        },
        {
          "internalType": "uint256",
          "name": "_priceMetis",
          "type": "uint256"
        },
        {
          "internalType": "uint256",
          "name": "_pricePeak",
          "type": "uint256"
        },
        {
          "internalType": "uint256",
          "name": "_royaltyFees",
          "type": "uint256"
        }
      ],
      "name": "listTokenToMarketplace",
      "outputs": [],
      "stateMutability": "nonpayable",
      "type": "function"
    },
    {
      "inputs": [
        {
          "internalType": "address",
          "name": "",
          "type": "address"
        },
        {
          "internalType": "uint256",
          "name": "",
          "type": "uint256"
        }
      ],
      "name": "nftDetails",
      "outputs": [
        {
          "internalType": "address",
          "name": "tokenOwner",
          "type": "address"
        },
        {
          "internalType": "address",
          "name": "secondaryOwner",
          "type": "address"
        },
        {
          "internalType": "contract IERC721",
          "name": "nftAddress",
          "type": "address"
        },
        {
          "internalType": "uint256",
          "name": "tokenId",
          "type": "uint256"
        },
        {
          "internalType": "uint256",
          "name": "priceMetis",
          "type": "uint256"
        },
        {
          "internalType": "uint256",
          "name": "pricePeak",
          "type": "uint256"
        },
        {
          "internalType": "uint256",
          "name": "royaltyFee",
          "type": "uint256"
        },
        {
          "internalType": "uint256",
          "name": "listedTime",
          "type": "uint256"
        },
        {
          "internalType": "uint256",
          "name": "updateTime",
          "type": "uint256"
        },
        {
          "internalType": "bool",
          "name": "isForSale",
          "type": "bool"
        },
        {
          "internalType": "bool",
          "name": "isAlreadyListed",
          "type": "bool"
        }
      ],
      "stateMutability": "view",
      "type": "function"
    },
    {
      "inputs": [
        {
          "internalType": "address",
          "name": "",
          "type": "address"
        },
        {
          "internalType": "address",
          "name": "",
          "type": "address"
        },
        {
          "internalType": "uint256",
          "name": "",
          "type": "uint256"
        },
        {
          "internalType": "bytes",
          "name": "",
          "type": "bytes"
        }
      ],
      "name": "onERC721Received",
      "outputs": [
        {
          "internalType": "bytes4",
          "name": "",
          "type": "bytes4"
        }
      ],
      "stateMutability": "nonpayable",
      "type": "function"
    },
    {
      "inputs": [],
      "name": "owner",
      "outputs": [
        {
          "internalType": "address",
          "name": "",
          "type": "address"
        }
      ],
      "stateMutability": "view",
      "type": "function"
    },
    {
      "inputs": [
        {
          "internalType": "address",
          "name": "_nftAddress",
          "type": "address"
        },
        {
          "internalType": "uint256",
          "name": "_tokenId",
          "type": "uint256"
        },
        {
          "internalType": "uint256",
          "name": "_amount",
          "type": "uint256"
        }
      ],
      "name": "participateInAuction",
      "outputs": [],
      "stateMutability": "payable",
      "type": "function"
    },
    {
      "inputs": [],
      "name": "platformFee",
      "outputs": [
        {
          "internalType": "uint256",
          "name": "",
          "type": "uint256"
        }
      ],
      "stateMutability": "view",
      "type": "function"
    },
    {
      "inputs": [],
      "name": "proxiableUUID",
      "outputs": [
        {
          "internalType": "bytes32",
          "name": "",
          "type": "bytes32"
        }
      ],
      "stateMutability": "view",
      "type": "function"
    },
    {
      "inputs": [
        {
          "internalType": "address",
          "name": "_nftAddress",
          "type": "address"
        },
        {
          "internalType": "uint256",
          "name": "_tokenId",
          "type": "uint256"
        }
      ],
      "name": "refundAuctionTokens",
      "outputs": [],
      "stateMutability": "payable",
      "type": "function"
    },
    {
      "inputs": [],
      "name": "renounceOwnership",
      "outputs": [],
      "stateMutability": "nonpayable",
      "type": "function"
    },
    {
      "inputs": [
        {
          "internalType": "uint256",
          "name": "_fees",
          "type": "uint256"
        }
      ],
      "name": "setPlatformFees",
      "outputs": [],
      "stateMutability": "nonpayable",
      "type": "function"
    },
    {
      "inputs": [
        {
          "internalType": "address",
          "name": "_nftAddress",
          "type": "address"
        },
        {
          "internalType": "uint256",
          "name": "_tokenId",
          "type": "uint256"
        },
        {
          "internalType": "uint256",
          "name": "_startTime",
          "type": "uint256"
        },
        {
          "internalType": "uint256",
          "name": "_endTime",
          "type": "uint256"
        },
        {
          "internalType": "uint256",
          "name": "_baseAmount",
          "type": "uint256"
        },
        {
          "internalType": "bool",
          "name": "_isMetis",
          "type": "bool"
        }
      ],
      "name": "startAuction",
      "outputs": [],
      "stateMutability": "nonpayable",
      "type": "function"
    },
    {
      "inputs": [
        {
          "internalType": "address",
          "name": "newOwner",
          "type": "address"
        }
      ],
      "name": "transferOwnership",
      "outputs": [],
      "stateMutability": "nonpayable",
      "type": "function"
    },
    {
      "inputs": [
        {
          "internalType": "address",
          "name": "_nftAddress",
          "type": "address"
        },
        {
          "internalType": "uint256",
          "name": "_tokenId",
          "type": "uint256"
        },
        {
          "internalType": "uint256",
          "name": "_priceMetis",
          "type": "uint256"
        },
        {
          "internalType": "uint256",
          "name": "_pricePeak",
          "type": "uint256"
        },
        {
          "internalType": "uint256",
          "name": "_royalty",
          "type": "uint256"
        },
        {
          "internalType": "bool",
          "name": "_isForSale",
          "type": "bool"
        }
      ],
      "name": "updateListedToken",
      "outputs": [],
      "stateMutability": "nonpayable",
      "type": "function"
    },
    {
      "inputs": [
        {
          "internalType": "address",
          "name": "newImplementation",
          "type": "address"
        }
      ],
      "name": "upgradeTo",
      "outputs": [],
      "stateMutability": "nonpayable",
      "type": "function"
    },
    {
      "inputs": [
        {
          "internalType": "address",
          "name": "newImplementation",
          "type": "address"
        },
        {
          "internalType": "bytes",
          "name": "data",
          "type": "bytes"
        }
      ],
      "name": "upgradeToAndCall",
      "outputs": [],
      "stateMutability": "payable",
      "type": "function"
    }
  ],
  "bytecode": "0x60a06040523060805234801561001457600080fd5b50608051612caa61004c60003960008181610b8d01528181610bcd01528181610c6d01528181610cad0152610d400152612caa6000f3fe6080604052600436106101665760003560e01c8063715018a6116100d1578063affa59821161008a578063c0c53b8b11610064578063c0c53b8b146104ee578063e3a21aca1461050e578063f2fde38b14610523578063f8201e0f1461054357600080fd5b8063affa5982146103c4578063b0020eb8146103d7578063b8b0ccf8146104ce57600080fd5b8063715018a61461031357806379caee8c1461032857806388cedbc4146103485780638da5cb5b1461036857806390b74f1c14610386578063a88ef500146103a657600080fd5b806326232a2e1161012357806326232a2e146102745780633659cfe6146102985780634f1ef286146102b857806352d1902d146102cb578063607a751e146102e057806367ee8a40146102f357600080fd5b8063012386f01461016b57806302172523146101965780630462c21a146101ce578063150b7a02146101f05780631f78536e14610234578063211a6b5214610247575b600080fd5b34801561017757600080fd5b50610180610563565b60405161018d919061256b565b60405180910390f35b3480156101a257600080fd5b5060cb546101b6906001600160a01b031681565b6040516001600160a01b03909116815260200161018d565b3480156101da57600080fd5b506101ee6101e93660046125cd565b6105c5565b005b3480156101fc57600080fd5b5061021b61020b3660046126b4565b630a85bd0160e11b949350505050565b6040516001600160e01b0319909116815260200161018d565b6101ee61024236600461272e565b610791565b34801561025357600080fd5b50610267610262366004612770565b610b16565b60405161018d919061278d565b34801561028057600080fd5b5061028a60c95481565b60405190815260200161018d565b3480156102a457600080fd5b506101ee6102b3366004612770565b610b82565b6101ee6102c63660046127c5565b610c62565b3480156102d757600080fd5b5061028a610d33565b6101ee6102ee366004612815565b610de6565b3480156102ff57600080fd5b5060ca546101b6906001600160a01b031681565b34801561031f57600080fd5b506101ee610fc6565b34801561033457600080fd5b506101ee61034336600461284a565b610ffc565b34801561035457600080fd5b506101ee610363366004612863565b61102b565b34801561037457600080fd5b506097546001600160a01b03166101b6565b34801561039257600080fd5b5061028a6103a1366004612863565b611789565b3480156103b257600080fd5b5060cf546001600160a01b03166101b6565b6101ee6103d2366004612863565b6117d5565b3480156103e357600080fd5b506104686103f2366004612863565b60cc60209081526000928352604080842090915290825290208054600182015460028301546003840154600485015460058601546006870154600788015460088901546009909901546001600160a01b039889169997891698909616969495939492939192909160ff808216916101009004168b565b604080516001600160a01b039c8d1681529a8c1660208c015298909a16978901979097526060880195909552608087019390935260a086019190915260c085015260e084015261010083015215156101208201529015156101408201526101600161018d565b3480156104da57600080fd5b506101ee6104e936600461288f565b611a86565b3480156104fa57600080fd5b506101ee6105093660046128ed565b611be9565b34801561051a57600080fd5b5060ce5461028a565b34801561052f57600080fd5b506101ee61053e366004612770565b611cef565b34801561054f57600080fd5b506101ee61055e36600461288f565b611d87565b606060ce8054806020026020016040519081016040528092919081815260200182805480156105bb57602002820191906000526020600020905b81546001600160a01b0316815260019091019060200180831161059d575b5050505050905090565b6001600160a01b038516600090815260cc6020908152604080832087845290915290206009015485908590610100900460ff161561063b5760405162461bcd60e51b815260206004820152600e60248201526d105b1c9958591e481b1a5cdd195960921b60448201526064015b60405180910390fd5b6001600160a01b038716600081815260cc602090815260408083208a8452909152908190208054336001600160a01b0319918216811783556001830180548316821790556002830180549092168517909155600382018a90556004808301899055600683018890554260078401819055600884015560098301805461ffff19166101011790559251632142170760e11b8152928301523060248301526044820189905291906342842e0e90606401600060405180830381600087803b15801561070357600080fd5b505af1158015610717573d6000803e3d6000fd5b505060ce805460018181019092557fd36cd1c74ef8d7326d8021b776c18fb5a5724b7f7bc93c2f42e43e10ef27d12a0180546001600160a01b03909c166001600160a01b0319909c168c17905560009a8b5260cd602090815260408c20805492830181558c52909a20909901979097555050505050505050565b6001600160a01b038316600090815260cc602090815260408083208584529091529020600901548390839060ff6101009091041615156001146108035760405162461bcd60e51b815260206004820152600a602482015269139bdd081b1a5cdd195960b21b6044820152606401610632565b6001600160a01b038516600090815260cc602090815260408083208784529091529020831561099857600080600061083e8460040154611e9e565b935093509350508360040154341461088b5760405162461bcd60e51b815260206004820152601060248201526f496e636f7272656e637420707269636560801b6044820152606401610632565b60ca546040516001600160a01b039091169083156108fc029084906000818181858888f193505050501580156108c5573d6000803e3d6000fd5b5060cb546040516001600160a01b039091169084156108fc029085906000818181858888f19350505050158015610900573d6000803e3d6000fd5b5083546001600160a01b03166108fc6109198b8b611789565b6040518115909202916000818181858888f19350505050158015610941573d6000803e3d6000fd5b5060018401546001600160a01b03166108fc6109676109608c8c611789565b8490611eed565b6040518115909202916000818181858888f1935050505015801561098f573d6000803e3d6000fd5b50505050610a76565b60008060006109aa8460050154611f09565b935093509350506109c033308660050154611f37565b83546109de906001600160a01b03166109d98b8b611789565b611ffd565b60cf54604051630852cd8d60e31b8152600481018590526001600160a01b03909116906342966c6890602401600060405180830381600087803b158015610a2457600080fd5b505af1158015610a38573d6000803e3d6000fd5b505060ca54610a5392506001600160a01b0316905083611ffd565b6001840154610a72906001600160a01b03166109d96109608c8c611789565b5050505b604051632142170760e11b8152306004820152336024820152604481018690526001600160a01b038716906342842e0e90606401600060405180830381600087803b158015610ac457600080fd5b505af1158015610ad8573d6000803e3d6000fd5b5050600060048401819055600584015550506001810180546001600160a01b03191633179055426008820155600901805460ff191690555050505050565b6001600160a01b038116600090815260cd6020908152604091829020805483518184028101840190945280845260609392830182828015610b7657602002820191906000526020600020905b815481526020019060010190808311610b62575b50505050509050919050565b306001600160a01b037f0000000000000000000000000000000000000000000000000000000000000000161415610bcb5760405162461bcd60e51b81526004016106329061292d565b7f00000000000000000000000000000000000000000000000000000000000000006001600160a01b0316610c14600080516020612c2e833981519152546001600160a01b031690565b6001600160a01b031614610c3a5760405162461bcd60e51b815260040161063290612979565b610c43816120b2565b60408051600080825260208201909252610c5f918391906120dc565b50565b306001600160a01b037f0000000000000000000000000000000000000000000000000000000000000000161415610cab5760405162461bcd60e51b81526004016106329061292d565b7f00000000000000000000000000000000000000000000000000000000000000006001600160a01b0316610cf4600080516020612c2e833981519152546001600160a01b031690565b6001600160a01b031614610d1a5760405162461bcd60e51b815260040161063290612979565b610d23826120b2565b610d2f828260016120dc565b5050565b6000306001600160a01b037f00000000000000000000000000000000000000000000000000000000000000001614610dd35760405162461bcd60e51b815260206004820152603860248201527f555550535570677261646561626c653a206d757374206e6f742062652063616c60448201527f6c6564207468726f7567682064656c656761746563616c6c00000000000000006064820152608401610632565b50600080516020612c2e83398151915290565b6001600160a01b038316600090815260cc602090815260408083208584528252808320600a019091529020600701548390839060ff610100909104161515600114610e435760405162461bcd60e51b8152600401610632906129c5565b6001600160a01b038516600090815260cc602090815260408083208784528252808320600a81019092529091206007015460ff1615610f01576000858152600a82016020526040902060030154341015610ed65760405162461bcd60e51b8152602060048201526014602482015273125b9d985b1a59081b595d1a5cc8185b5bdd5b9d60621b6044820152606401610632565b6000858152600a82016020908152604082206006018054600181018255908352912034910155610f8c565b6000858152600a82016020526040902060030154841015610f5a5760405162461bcd60e51b8152602060048201526013602482015272125b9d985b1a59081c19585ac8185b5bdd5b9d606a1b6044820152606401610632565b610f65333086611f37565b6000858152600a820160209081526040822060060180546001810182559083529120018490555b6000948552600a016020908152604085206005018054600181018255908652942090930180546001600160a01b0319163317905550505050565b6097546001600160a01b03163314610ff05760405162461bcd60e51b815260040161063290612a07565b610ffa6000612247565b565b6097546001600160a01b031633146110265760405162461bcd60e51b815260040161063290612a07565b60c955565b6001600160a01b038216600090815260cc602090815260408083208484528252808320600a019091529020600701548290829060ff6101009091041615156001146110885760405162461bcd60e51b8152600401610632906129c5565b6001600160a01b03808516600090815260cc60209081526040808320878452909152902060010154859185911633146110d35760405162461bcd60e51b815260040161063290612a3c565b6001600160a01b038616600090815260cc602090815260408083208884528252808320600a810190925290912060070154610100900460ff166111585760405162461bcd60e51b815260206004820152601960248201527f4e6f7420617661696c61626c6520666f722061756374696f6e000000000000006044820152606401610632565b6000868152600a8201602052604090206002015442116111a95760405162461bcd60e51b815260206004820152600c60248201526b496e76616c69642074696d6560a01b6044820152606401610632565b6000868152600a82016020908152604080832060078101805461ff00191690556006018054825181850281018501909352808352919290919083018282801561121157602002820191906000526020600020905b8154815260200190600101908083116111fd575b50505050509050600082600a01600089815260200190815260200160002060050180548060200260200160405190810160405280929190818152602001828054801561128657602002820191906000526020600020905b81546001600160a01b03168152600190910190602001808311611268575b5050505050905080518251146112d65760405162461bcd60e51b81526020600482015260156024820152744c656e6774682073686f756c642062652073616d6560581b6044820152606401610632565b60005b82516112e6906001611eed565b81101561148657826112f9826001612a7a565b8151811061130957611309612a92565b602002602001015183828151811061132357611323612a92565b602002602001015111156114745760008361133f836001612a7a565b8151811061134f5761134f612a92565b602002602001015190506000838360016113699190612a7a565b8151811061137957611379612a92565b6020026020010151905084838151811061139557611395612a92565b6020026020010151858460016113ab9190612a7a565b815181106113bb576113bb612a92565b6020026020010181815250508383815181106113d9576113d9612a92565b6020026020010151848460016113ef9190612a7a565b815181106113ff576113ff612a92565b60200260200101906001600160a01b031690816001600160a01b0316815250508185848151811061143257611432612a92565b6020026020010181815250508084848151811061145157611451612a92565b60200260200101906001600160a01b031690816001600160a01b03168152505050505b8061147e81612aa8565b9150506112d9565b5080518190611496906001611eed565b815181106114a6576114a6612a92565b6020908102919091010151600184810180546001600160a01b0319166001600160a01b0390931692909217909155600060048501819055600585015542600885015560098401805460ff19169055815182916115029190611eed565b8151811061151257611512612a92565b60209081029190910181015160008a8152600a860190925260409091206004810180546001600160a01b0319166001600160a01b03909316929092179091556007015460ff16156116a55760008060006115988561157b60018851611eed90919063ffffffff16565b8151811061158b5761158b612a92565b6020026020010151611e9e565b60ca5460405193975091955093506001600160a01b0316915083156108fc029084906000818181858888f193505050501580156115d9573d6000803e3d6000fd5b5060cb546040516001600160a01b039091169084156108fc029085906000818181858888f19350505050158015611614573d6000803e3d6000fd5b5085546001600160a01b03166108fc61162d8e8e611789565b6040518115909202916000818181858888f19350505050158015611655573d6000803e3d6000fd5b5060018601546001600160a01b03166108fc6116746109608f8f611789565b6040518115909202916000818181858888f1935050505015801561169c573d6000803e3d6000fd5b5050505061177e565b60008060006116b78660050154611f09565b935093509350506116cd33308860050154611f37565b85546116e6906001600160a01b03166109d98e8e611789565b60cf54604051630852cd8d60e31b8152600481018590526001600160a01b03909116906342966c6890602401600060405180830381600087803b15801561172c57600080fd5b505af1158015611740573d6000803e3d6000fd5b505060ca5461175b92506001600160a01b0316905083611ffd565b600186015461177a906001600160a01b03166109d96109608f8f611789565b5050505b505050505050505050565b6001600160a01b038216600090815260cc60209081526040808320848452909152812060068101546005909101546117ce91612710916117c891612299565b906122c9565b9392505050565b6001600160a01b038216600090815260cc602090815260408083208484528252808320600a810190925290912060070154610100900460ff161561185b5760405162461bcd60e51b815260206004820152601960248201527f41756374696f6e206973206e6f7420656e646564207965742e000000000000006044820152606401610632565b6000828152600a820160209081526040808320600601805482518185028101850190935280835291929091908301828280156118b657602002820191906000526020600020905b8154815260200190600101908083116118a2575b50505050509050600082600a01600085815260200190815260200160002060050180548060200260200160405190810160405280929190818152602001828054801561192b57602002820191906000526020600020905b81546001600160a01b0316815260019091019060200180831161190d575b5050505050905060005b8251811015611a7e5781818151811061195057611950612a92565b60200260200101516001600160a01b0316336001600160a01b03161415611a6c576000858152600a850160205260409020600401546001600160a01b031633146119d55760405162461bcd60e51b8152602060048201526016602482015275165bdd4818d85b881b9bdd0819d95d081c99599d5b9960521b6044820152606401610632565b6000858152600a8501602052604090206007015460ff1615611a4957336001600160a01b03166108fc848381518110611a1057611a10612a92565b60200260200101519081150290604051600060405180830381858888f19350505050158015611a43573d6000803e3d6000fd5b50611a6c565b611a6c33848381518110611a5f57611a5f612a92565b6020026020010151611ffd565b80611a7681612aa8565b915050611935565b505050505050565b6001600160a01b038616600090815260cc602090815260408083208884528252808320600a019091529020600701548690869060ff610100909104161515600114611ae35760405162461bcd60e51b8152600401610632906129c5565b6001600160a01b03808916600090815260cc602090815260408083208b845290915290206001015489918991163314611b2e5760405162461bcd60e51b815260040161063290612a3c565b6001600160a01b038a16600090815260cc602090815260408083208c845290915290204289118015611b5f57508789115b611b9a5760405162461bcd60e51b815260206004820152600c60248201526b496e76616c69642074696d6560a01b6044820152606401610632565b6000998a52600a0160205250506040909620600181019590955550600284019290925560038301556007909101805461ff00199215159290921661ffff19909216919091176101001790555050565b600054610100900460ff16611c045760005460ff1615611c08565b303b155b611c6b5760405162461bcd60e51b815260206004820152602e60248201527f496e697469616c697a61626c653a20636f6e747261637420697320616c72656160448201526d191e481a5b9a5d1a585b1a5e995960921b6064820152608401610632565b600054610100900460ff16158015611c8d576000805461ffff19166101011790555b60cf80546001600160a01b038087166001600160a01b03199283161790925560ca805486841690831617905560cb80549285169290911691909117905560c860c955611cd76122de565b8015611ce9576000805461ff00191690555b50505050565b6097546001600160a01b03163314611d195760405162461bcd60e51b815260040161063290612a07565b6001600160a01b038116611d7e5760405162461bcd60e51b815260206004820152602660248201527f4f776e61626c653a206e6577206f776e657220697320746865207a65726f206160448201526564647265737360d01b6064820152608401610632565b610c5f81612247565b6001600160a01b038616600090815260cc602090815260408083208884529091529020600901548690869060ff610100909104161515600114611df95760405162461bcd60e51b815260206004820152600a602482015269139bdd081b1a5cdd195960b21b6044820152606401610632565b6001600160a01b03808916600090815260cc602090815260408083208b845290915290206001015489918991163314611e445760405162461bcd60e51b815260040161063290612a3c565b505050506001600160a01b0395909516600090815260cc6020908152604080832096835295905293909320600481019290925560058201556006810191909155426008820155600901805460ff1916911515919091179055565b600080600080611ebf6127106117c860c9548861229990919063ffffffff16565b9350611ecc8260036122c9565b9250611ed88484611eed565b9150611ee48585611eed565b90509193509193565b600082821115611eff57611eff612ac3565b6117ce8284612ad9565b600080600080611f2a6127106117c860c9548861229990919063ffffffff16565b9350611ecc8260026122c9565b60cf546040516323b872dd60e01b81526001600160a01b038581166004830152848116602483015260448201849052909116906323b872dd906064016020604051808303816000875af1158015611f92573d6000803e3d6000fd5b505050506040513d601f19601f82011682018060405250810190611fb69190612af0565b611ff85760405162461bcd60e51b8152602060048201526013602482015272151c985b9cd9995c999c9bdb4819985a5b1959606a1b6044820152606401610632565b505050565b60cf5460405163a9059cbb60e01b81526001600160a01b038481166004830152602482018490529091169063a9059cbb906044016020604051808303816000875af1158015612050573d6000803e3d6000fd5b505050506040513d601f19601f820116820180604052508101906120749190612af0565b610d2f5760405162461bcd60e51b815260206004820152600f60248201526e151c985b9cd9995c8819985a5b1959608a1b6044820152606401610632565b6097546001600160a01b03163314610c5f5760405162461bcd60e51b815260040161063290612a07565b7f4910fdfa16fed3260ed0e7147f7cc6da11a60208b5b9406d12a635614ffd91435460ff161561210f57611ff88361230d565b826001600160a01b03166352d1902d6040518163ffffffff1660e01b8152600401602060405180830381865afa925050508015612169575060408051601f3d908101601f1916820190925261216691810190612b0d565b60015b6121cc5760405162461bcd60e51b815260206004820152602e60248201527f45524331393637557067726164653a206e657720696d706c656d656e7461746960448201526d6f6e206973206e6f74205555505360901b6064820152608401610632565b600080516020612c2e833981519152811461223b5760405162461bcd60e51b815260206004820152602960248201527f45524331393637557067726164653a20756e737570706f727465642070726f786044820152681a58589b195555525160ba1b6064820152608401610632565b50611ff88383836123a9565b609780546001600160a01b038381166001600160a01b0319831681179093556040519116919082907f8be0079c531659141344cd1fd0a4f28419497f9722a3daafe3b4186f6b6457e090600090a35050565b6000806122a68385612b26565b90508315806122bd5750826122bb8583612b45565b145b6117ce576117ce612ac3565b6000806122d68385612b45565b949350505050565b600054610100900460ff166123055760405162461bcd60e51b815260040161063290612b67565b610ffa6123ce565b6001600160a01b0381163b61237a5760405162461bcd60e51b815260206004820152602d60248201527f455243313936373a206e657720696d706c656d656e746174696f6e206973206e60448201526c1bdd08184818dbdb9d1c9858dd609a1b6064820152608401610632565b600080516020612c2e83398151915280546001600160a01b0319166001600160a01b0392909216919091179055565b6123b2836123fe565b6000825111806123bf5750805b15611ff857611ce9838361243e565b600054610100900460ff166123f55760405162461bcd60e51b815260040161063290612b67565b610ffa33612247565b6124078161230d565b6040516001600160a01b038216907fbc7cd75a20ee27fd9adebab32041f755214dbc6bffa90cc0225b39da2e5c2d3b90600090a250565b60606001600160a01b0383163b6124a65760405162461bcd60e51b815260206004820152602660248201527f416464726573733a2064656c65676174652063616c6c20746f206e6f6e2d636f6044820152651b9d1c9858dd60d21b6064820152608401610632565b600080846001600160a01b0316846040516124c19190612bde565b600060405180830381855af49150503d80600081146124fc576040519150601f19603f3d011682016040523d82523d6000602084013e612501565b606091505b50915091506125298282604051806060016040528060278152602001612c4e60279139612532565b95945050505050565b606083156125415750816117ce565b8251156125515782518084602001fd5b8160405162461bcd60e51b81526004016106329190612bfa565b6020808252825182820181905260009190848201906040850190845b818110156125ac5783516001600160a01b031683529284019291840191600101612587565b50909695505050505050565b6001600160a01b0381168114610c5f57600080fd5b600080600080600060a086880312156125e557600080fd5b85356125f0816125b8565b97602087013597506040870135966060810135965060800135945092505050565b634e487b7160e01b600052604160045260246000fd5b600082601f83011261263857600080fd5b813567ffffffffffffffff8082111561265357612653612611565b604051601f8301601f19908116603f0116810190828211818310171561267b5761267b612611565b8160405283815286602085880101111561269457600080fd5b836020870160208301376000602085830101528094505050505092915050565b600080600080608085870312156126ca57600080fd5b84356126d5816125b8565b935060208501356126e5816125b8565b925060408501359150606085013567ffffffffffffffff81111561270857600080fd5b61271487828801612627565b91505092959194509250565b8015158114610c5f57600080fd5b60008060006060848603121561274357600080fd5b833561274e816125b8565b925060208401359150604084013561276581612720565b809150509250925092565b60006020828403121561278257600080fd5b81356117ce816125b8565b6020808252825182820181905260009190848201906040850190845b818110156125ac578351835292840192918401916001016127a9565b600080604083850312156127d857600080fd5b82356127e3816125b8565b9150602083013567ffffffffffffffff8111156127ff57600080fd5b61280b85828601612627565b9150509250929050565b60008060006060848603121561282a57600080fd5b8335612835816125b8565b95602085013595506040909401359392505050565b60006020828403121561285c57600080fd5b5035919050565b6000806040838503121561287657600080fd5b8235612881816125b8565b946020939093013593505050565b60008060008060008060c087890312156128a857600080fd5b86356128b3816125b8565b95506020870135945060408701359350606087013592506080870135915060a08701356128df81612720565b809150509295509295509295565b60008060006060848603121561290257600080fd5b833561290d816125b8565b9250602084013561291d816125b8565b91506040840135612765816125b8565b6020808252602c908201527f46756e6374696f6e206d7573742062652063616c6c6564207468726f7567682060408201526b19195b1959d85d1958d85b1b60a21b606082015260800190565b6020808252602c908201527f46756e6374696f6e206d7573742062652063616c6c6564207468726f7567682060408201526b6163746976652070726f787960a01b606082015260800190565b60208082526022908201527f546f6b656e206973206e6f7420617661696c61626c6520666f7220617563746960408201526137b760f11b606082015260800190565b6020808252818101527f4f776e61626c653a2063616c6c6572206973206e6f7420746865206f776e6572604082015260600190565b6020808252600e908201526d139bdd08185d5d1a1bdc9a5e995960921b604082015260600190565b634e487b7160e01b600052601160045260246000fd5b60008219821115612a8d57612a8d612a64565b500190565b634e487b7160e01b600052603260045260246000fd5b6000600019821415612abc57612abc612a64565b5060010190565b634e487b7160e01b600052600160045260246000fd5b600082821015612aeb57612aeb612a64565b500390565b600060208284031215612b0257600080fd5b81516117ce81612720565b600060208284031215612b1f57600080fd5b5051919050565b6000816000190483118215151615612b4057612b40612a64565b500290565b600082612b6257634e487b7160e01b600052601260045260246000fd5b500490565b6020808252602b908201527f496e697469616c697a61626c653a20636f6e7472616374206973206e6f74206960408201526a6e697469616c697a696e6760a81b606082015260800190565b60005b83811015612bcd578181015183820152602001612bb5565b83811115611ce95750506000910152565b60008251612bf0818460208701612bb2565b9190910192915050565b6020815260008251806020840152612c19816040850160208701612bb2565b601f01601f1916919091016040019291505056fe360894a13ba1a3210667c828492db98dca3e2076cc3735a920a3ca505d382bbc416464726573733a206c6f772d6c6576656c2064656c65676174652063616c6c206661696c6564a26469706673582212205fb7c41ff660c1e37992d8a938457e9dc1a997b4e5cf01c2b5ed8a788fed059464736f6c634300080b0033",
  "linkReferences": {},
  "deployedLinkReferences": {}
}