{
  "_format": "hh-sol-artifact-1",
  "contractName": "ApparelMarketplace",
  "sourceName": "contracts/ApparelMarketplace.sol",
  "abi": [
    {
      "anonymous": false,
      "inputs": [
        {
          "indexed": false,
          "internalType": "address",
          "name": "previousAdmin",
          "type": "address"
        },
        {
          "indexed": false,
          "internalType": "address",
          "name": "newAdmin",
          "type": "address"
        }
      ],
      "name": "AdminChanged",
      "type": "event"
    },
    {
      "anonymous": false,
      "inputs": [
        {
          "indexed": true,
          "internalType": "address",
          "name": "beacon",
          "type": "address"
        }
      ],
      "name": "BeaconUpgraded",
      "type": "event"
    },
    {
      "anonymous": false,
      "inputs": [
        {
          "indexed": true,
          "internalType": "address",
          "name": "previousOwner",
          "type": "address"
        },
        {
          "indexed": true,
          "internalType": "address",
          "name": "newOwner",
          "type": "address"
        }
      ],
      "name": "OwnershipTransferred",
      "type": "event"
    },
    {
      "anonymous": false,
      "inputs": [
        {
          "indexed": true,
          "internalType": "address",
          "name": "implementation",
          "type": "address"
        }
      ],
      "name": "Upgraded",
      "type": "event"
    },
    {
      "inputs": [
        {
          "internalType": "address",
          "name": "_nftAddress",
          "type": "address"
        },
        {
          "internalType": "uint256",
          "name": "_tokenId",
          "type": "uint256"
        },
        {
          "internalType": "bool",
          "name": "_isMetis",
          "type": "bool"
        }
      ],
      "name": "butToken",
      "outputs": [],
      "stateMutability": "payable",
      "type": "function"
    },
    {
      "inputs": [],
      "name": "getListedNFTs",
      "outputs": [
        {
          "internalType": "address[]",
          "name": "",
          "type": "address[]"
        }
      ],
      "stateMutability": "view",
      "type": "function"
    },
    {
      "inputs": [
        {
          "internalType": "address",
          "name": "_nftAddress",
          "type": "address"
        }
      ],
      "name": "getListedTokenIds",
      "outputs": [
        {
          "internalType": "uint256[]",
          "name": "",
          "type": "uint256[]"
        }
      ],
      "stateMutability": "view",
      "type": "function"
    },
    {
      "inputs": [],
      "name": "getNumberOfListedNFTs",
      "outputs": [
        {
          "internalType": "uint256",
          "name": "",
          "type": "uint256"
        }
      ],
      "stateMutability": "view",
      "type": "function"
    },
    {
      "inputs": [],
      "name": "getPeakAddress",
      "outputs": [
        {
          "internalType": "contract IERC20",
          "name": "",
          "type": "address"
        }
      ],
      "stateMutability": "view",
      "type": "function"
    },
    {
      "inputs": [
        {
          "internalType": "contract IERC20",
          "name": "_peak",
          "type": "address"
        }
      ],
      "name": "initialize",
      "outputs": [],
      "stateMutability": "nonpayable",
      "type": "function"
    },
    {
      "inputs": [
        {
          "internalType": "address",
          "name": "_nftAddress",
          "type": "address"
        },
        {
          "internalType": "uint256",
          "name": "_tokenId",
          "type": "uint256"
        },
        {
          "internalType": "uint256",
          "name": "_priceMetis",
          "type": "uint256"
        },
        {
          "internalType": "uint256",
          "name": "_pricePeak",
          "type": "uint256"
        }
      ],
      "name": "listTokenToMarketplace",
      "outputs": [],
      "stateMutability": "nonpayable",
      "type": "function"
    },
    {
      "inputs": [
        {
          "internalType": "address",
          "name": "",
          "type": "address"
        },
        {
          "internalType": "uint256",
          "name": "",
          "type": "uint256"
        }
      ],
      "name": "nftDetails",
      "outputs": [
        {
          "internalType": "address",
          "name": "tokenOwner",
          "type": "address"
        },
        {
          "internalType": "contract IERC721",
          "name": "nftAddress",
          "type": "address"
        },
        {
          "internalType": "uint256",
          "name": "tokenId",
          "type": "uint256"
        },
        {
          "internalType": "uint256",
          "name": "priceMetis",
          "type": "uint256"
        },
        {
          "internalType": "uint256",
          "name": "pricePeak",
          "type": "uint256"
        },
        {
          "internalType": "uint256",
          "name": "listedTime",
          "type": "uint256"
        },
        {
          "internalType": "uint256",
          "name": "updateTime",
          "type": "uint256"
        },
        {
          "internalType": "bool",
          "name": "isForSale",
          "type": "bool"
        },
        {
          "internalType": "bool",
          "name": "isAlreadyListed",
          "type": "bool"
        }
      ],
      "stateMutability": "view",
      "type": "function"
    },
    {
      "inputs": [
        {
          "internalType": "address",
          "name": "",
          "type": "address"
        },
        {
          "internalType": "address",
          "name": "",
          "type": "address"
        },
        {
          "internalType": "uint256",
          "name": "",
          "type": "uint256"
        },
        {
          "internalType": "bytes",
          "name": "",
          "type": "bytes"
        }
      ],
      "name": "onERC721Received",
      "outputs": [
        {
          "internalType": "bytes4",
          "name": "",
          "type": "bytes4"
        }
      ],
      "stateMutability": "nonpayable",
      "type": "function"
    },
    {
      "inputs": [],
      "name": "owner",
      "outputs": [
        {
          "internalType": "address",
          "name": "",
          "type": "address"
        }
      ],
      "stateMutability": "view",
      "type": "function"
    },
    {
      "inputs": [
        {
          "internalType": "address",
          "name": "_nftAddress",
          "type": "address"
        },
        {
          "internalType": "uint256",
          "name": "_tokenId",
          "type": "uint256"
        },
        {
          "internalType": "uint256",
          "name": "_amount",
          "type": "uint256"
        }
      ],
      "name": "participateInAuction",
      "outputs": [],
      "stateMutability": "nonpayable",
      "type": "function"
    },
    {
      "inputs": [],
      "name": "platformFee",
      "outputs": [
        {
          "internalType": "uint256",
          "name": "",
          "type": "uint256"
        }
      ],
      "stateMutability": "view",
      "type": "function"
    },
    {
      "inputs": [],
      "name": "proxiableUUID",
      "outputs": [
        {
          "internalType": "bytes32",
          "name": "",
          "type": "bytes32"
        }
      ],
      "stateMutability": "view",
      "type": "function"
    },
    {
      "inputs": [],
      "name": "renounceOwnership",
      "outputs": [],
      "stateMutability": "nonpayable",
      "type": "function"
    },
    {
      "inputs": [
        {
          "internalType": "address",
          "name": "_nftAddress",
          "type": "address"
        },
        {
          "internalType": "uint256",
          "name": "_tokenId",
          "type": "uint256"
        },
        {
          "internalType": "uint256",
          "name": "_startTime",
          "type": "uint256"
        },
        {
          "internalType": "uint256",
          "name": "_endTime",
          "type": "uint256"
        },
        {
          "internalType": "uint256",
          "name": "_baseAmount",
          "type": "uint256"
        }
      ],
      "name": "startAuction",
      "outputs": [],
      "stateMutability": "nonpayable",
      "type": "function"
    },
    {
      "inputs": [
        {
          "internalType": "address",
          "name": "newOwner",
          "type": "address"
        }
      ],
      "name": "transferOwnership",
      "outputs": [],
      "stateMutability": "nonpayable",
      "type": "function"
    },
    {
      "inputs": [
        {
          "internalType": "address",
          "name": "_nftAddress",
          "type": "address"
        },
        {
          "internalType": "uint256",
          "name": "_tokenId",
          "type": "uint256"
        },
        {
          "internalType": "uint256",
          "name": "_priceMetis",
          "type": "uint256"
        },
        {
          "internalType": "uint256",
          "name": "_pricePeak",
          "type": "uint256"
        },
        {
          "internalType": "bool",
          "name": "_isForSale",
          "type": "bool"
        }
      ],
      "name": "updateListedToken",
      "outputs": [],
      "stateMutability": "nonpayable",
      "type": "function"
    },
    {
      "inputs": [
        {
          "internalType": "address",
          "name": "newImplementation",
          "type": "address"
        }
      ],
      "name": "upgradeTo",
      "outputs": [],
      "stateMutability": "nonpayable",
      "type": "function"
    },
    {
      "inputs": [
        {
          "internalType": "address",
          "name": "newImplementation",
          "type": "address"
        },
        {
          "internalType": "bytes",
          "name": "data",
          "type": "bytes"
        }
      ],
      "name": "upgradeToAndCall",
      "outputs": [],
      "stateMutability": "payable",
      "type": "function"
    }
  ],
  "bytecode": "0x60a06040523060805234801561001457600080fd5b50608051611db261004c6000396000818161051e01528181610567015281816106070152818161064701526106da0152611db26000f3fe6080604052600436106101145760003560e01c80636dd2ac84116100a0578063b66cb3ec11610064578063b66cb3ec146103b0578063c4d66de8146103d0578063e3a21aca146103f0578063f07f44ee14610405578063f2fde38b1461042557600080fd5b80636dd2ac8414610256578063715018a6146102765780638da5cb5b1461028b578063a88ef500146102bd578063b0020eb8146102db57600080fd5b80633659cfe6116100e75780633659cfe6146101d95780634f1ef286146101fb57806352d1902d1461020e578063607a751e1461022357806367f78e841461024357600080fd5b8063012386f014610119578063150b7a0214610144578063211a6b521461018857806326232a2e146101b5575b600080fd5b34801561012557600080fd5b5061012e610445565b60405161013b91906116e6565b60405180910390f35b34801561015057600080fd5b5061016f61015f3660046117eb565b630a85bd0160e11b949350505050565b6040516001600160e01b0319909116815260200161013b565b34801561019457600080fd5b506101a86101a3366004611857565b6104a7565b60405161013b9190611874565b3480156101c157600080fd5b506101cb60c95481565b60405190815260200161013b565b3480156101e557600080fd5b506101f96101f4366004611857565b610513565b005b6101f96102093660046118ac565b6105fc565b34801561021a57600080fd5b506101cb6106cd565b34801561022f57600080fd5b506101f961023e3660046118fc565b610780565b6101f961025136600461193f565b610964565b34801561026257600080fd5b506101f9610271366004611981565b610ce5565b34801561028257600080fd5b506101f9610ddf565b34801561029757600080fd5b506097546001600160a01b03165b6040516001600160a01b03909116815260200161013b565b3480156102c957600080fd5b5060cd546001600160a01b03166102a5565b3480156102e757600080fd5b5061035d6102f63660046119c5565b60ca602090815260009283526040808420909152908252902080546001820154600283015460038401546004850154600586015460068701546007909701546001600160a01b03968716979590961695939492939192909160ff8082169161010090041689565b604080516001600160a01b039a8b1681529990981660208a0152968801959095526060870193909352608086019190915260a085015260c0840152151560e083015215156101008201526101200161013b565b3480156103bc57600080fd5b506101f96103cb3660046119f1565b610e15565b3480156103dc57600080fd5b506101f96103eb366004611857565b610eda565b3480156103fc57600080fd5b5060cc546101cb565b34801561041157600080fd5b506101f9610420366004611a47565b610fbb565b34801561043157600080fd5b506101f9610440366004611857565b611167565b606060cc80548060200260200160405190810160405280929190818152602001828054801561049d57602002820191906000526020600020905b81546001600160a01b0316815260019091019060200180831161047f575b5050505050905090565b6001600160a01b038116600090815260cb602090815260409182902080548351818402810184019094528084526060939283018282801561050757602002820191906000526020600020905b8154815260200190600101908083116104f3575b50505050509050919050565b306001600160a01b037f00000000000000000000000000000000000000000000000000000000000000001614156105655760405162461bcd60e51b815260040161055c90611a82565b60405180910390fd5b7f00000000000000000000000000000000000000000000000000000000000000006001600160a01b03166105ae600080516020611d36833981519152546001600160a01b031690565b6001600160a01b0316146105d45760405162461bcd60e51b815260040161055c90611ace565b6105dd816111ff565b604080516000808252602082019092526105f991839190611229565b50565b306001600160a01b037f00000000000000000000000000000000000000000000000000000000000000001614156106455760405162461bcd60e51b815260040161055c90611a82565b7f00000000000000000000000000000000000000000000000000000000000000006001600160a01b031661068e600080516020611d36833981519152546001600160a01b031690565b6001600160a01b0316146106b45760405162461bcd60e51b815260040161055c90611ace565b6106bd826111ff565b6106c982826001611229565b5050565b6000306001600160a01b037f0000000000000000000000000000000000000000000000000000000000000000161461076d5760405162461bcd60e51b815260206004820152603860248201527f555550535570677261646561626c653a206d757374206e6f742062652063616c60448201527f6c6564207468726f7567682064656c656761746563616c6c0000000000000000606482015260840161055c565b50600080516020611d3683398151915290565b6001600160a01b038316600090815260ca6020908152604080832085845282528083206008019091529020600601548390839060ff1615156001146107d75760405162461bcd60e51b815260040161055c90611b1a565b6001600160a01b038516600090815260ca6020908152604080832087845282528083206008019091529020600301548310156108465760405162461bcd60e51b815260206004820152600e60248201526d125b9d985b1a5908185b5bdd5b9d60921b604482015260640161055c565b60cd546040516323b872dd60e01b81526001600160a01b03909116906323b872dd9061087a90339030908890600401611b5c565b6020604051808303816000875af1158015610899573d6000803e3d6000fd5b505050506040513d601f19601f820116820180604052508101906108bd9190611b80565b6108fb5760405162461bcd60e51b815260206004820152600f60248201526e151c985b9cd9995c8819985a5b1959608a1b604482015260640161055c565b50506001600160a01b03909216600090815260ca60209081526040808320938352928152828220600801808252928220600481018054600181810183559185528385200180546001600160a01b0319163317905593825260050180549384018155825290200155565b6001600160a01b038316600090815260ca602090815260408083208584529091529020600701548390839060ff6101009091041615156001146109d65760405162461bcd60e51b815260206004820152600a602482015269139bdd081b1a5cdd195960b21b604482015260640161055c565b8215610af75760c9546001600160a01b038616600090815260ca602090815260408083208884529091528120600301549091610a209161271091610a1a9190611399565b906113d0565b6001600160a01b038716600090815260ca602090815260408083208984529091529020600301549091503414610a8b5760405162461bcd60e51b815260206004820152601060248201526f496e636f7272656e637420707269636560801b604482015260640161055c565b6001600160a01b03868116600090815260ca60209081526040808320898452909152902080546003909101549116906108fc90610ac890846113e5565b6040518115909202916000818181858888f19350505050158015610af0573d6000803e3d6000fd5b5050610c38565b60c9546001600160a01b038616600090815260ca602090815260408083208884529091528120600401549091610b359161271091610a1a9190611399565b60cd546001600160a01b03888116600090815260ca602090815260408083208b845290915290208054600490910154939450918116926323b872dd9233921690610b7f90866113e5565b6040518463ffffffff1660e01b8152600401610b9d93929190611b5c565b6020604051808303816000875af1158015610bbc573d6000803e3d6000fd5b505050506040513d601f19601f82011682018060405250810190610be09190611b80565b610c365760405162461bcd60e51b815260206004820152602160248201527f5072696365206d75737420626520657175616c20746f2073656c6c20707269636044820152606560f81b606482015260840161055c565b505b604051632142170760e11b81526001600160a01b038616906342842e0e90610c6890309033908990600401611b5c565b600060405180830381600087803b158015610c8257600080fd5b505af1158015610c96573d6000803e3d6000fd5b505050506001600160a01b0394909416600090815260ca602090815260408083209583529490529283206003810184905560048101939093555050426006820155600701805460ff1916905550565b6001600160a01b038516600090815260ca6020908152604080832087845282528083206008019091529020600601548590859060ff161515600114610d3c5760405162461bcd60e51b815260040161055c90611b1a565b4285118015610d4a57508385115b610d855760405162461bcd60e51b815260206004820152600c60248201526b496e76616c69642074696d6560a01b604482015260640161055c565b50506001600160a01b0394909416600090815260ca6020908152604080832095835294815284822060080190529290922060018082019290925560028101929092556003820192909255600601805460ff19169091179055565b6097546001600160a01b03163314610e095760405162461bcd60e51b815260040161055c90611b9d565b610e136000611401565b565b6001600160a01b038516600090815260ca602090815260408083208784529091529020600701548590859060ff610100909104161515600114610e875760405162461bcd60e51b815260206004820152600a602482015269139bdd081b1a5cdd195960b21b604482015260640161055c565b50506001600160a01b0394909416600090815260ca602090815260408083209583529490529290922060038101919091556004810191909155426006820155600701805460ff1916911515919091179055565b600054610100900460ff16610ef55760005460ff1615610ef9565b303b155b610f5c5760405162461bcd60e51b815260206004820152602e60248201527f496e697469616c697a61626c653a20636f6e747261637420697320616c72656160448201526d191e481a5b9a5d1a585b1a5e995960921b606482015260840161055c565b600054610100900460ff16158015610f7e576000805461ffff19166101011790555b60cd80546001600160a01b0319166001600160a01b03841617905560c860c955610fa6611453565b80156106c9576000805461ff00191690555050565b6001600160a01b038416600090815260ca6020908152604080832086845290915290206007015484908490610100900460ff161561102c5760405162461bcd60e51b815260206004820152600e60248201526d105b1c9958591e481b1a5cdd195960921b604482015260640161055c565b6001600160a01b038616600081815260ca60209081526040808320898452909152908190208054336001600160a01b03199182168117835560018301805490921685179091556002820189905560038201879055426005830181905560068301556007909101805461ffff19166101011790559051632142170760e11b81526342842e0e916110c19130908a90600401611b5c565b600060405180830381600087803b1580156110db57600080fd5b505af11580156110ef573d6000803e3d6000fd5b505060cc805460018181019092557f47197230e1e4b29fc0bd84d7d78966c0925452aff72a2a121538b102457e9ebe0180546001600160a01b03909a166001600160a01b0319909a168a179055600098895260cb602090815260408a20805492830181558a5290982090970195909555505050505050565b6097546001600160a01b031633146111915760405162461bcd60e51b815260040161055c90611b9d565b6001600160a01b0381166111f65760405162461bcd60e51b815260206004820152602660248201527f4f776e61626c653a206e6577206f776e657220697320746865207a65726f206160448201526564647265737360d01b606482015260840161055c565b6105f981611401565b6097546001600160a01b031633146105f95760405162461bcd60e51b815260040161055c90611b9d565b7f4910fdfa16fed3260ed0e7147f7cc6da11a60208b5b9406d12a635614ffd91435460ff16156112615761125c83611482565b505050565b826001600160a01b03166352d1902d6040518163ffffffff1660e01b8152600401602060405180830381865afa9250505080156112bb575060408051601f3d908101601f191682019092526112b891810190611bd2565b60015b61131e5760405162461bcd60e51b815260206004820152602e60248201527f45524331393637557067726164653a206e657720696d706c656d656e7461746960448201526d6f6e206973206e6f74205555505360901b606482015260840161055c565b600080516020611d36833981519152811461138d5760405162461bcd60e51b815260206004820152602960248201527f45524331393637557067726164653a20756e737570706f727465642070726f786044820152681a58589b195555525160ba1b606482015260840161055c565b5061125c83838361151e565b6000806113a68385611c01565b90508315806113bd5750826113bb8583611c20565b145b6113c9576113c9611c42565b9392505050565b6000806113dd8385611c20565b949350505050565b6000828211156113f7576113f7611c42565b6113c98284611c58565b609780546001600160a01b038381166001600160a01b0319831681179093556040519116919082907f8be0079c531659141344cd1fd0a4f28419497f9722a3daafe3b4186f6b6457e090600090a35050565b600054610100900460ff1661147a5760405162461bcd60e51b815260040161055c90611c6f565b610e13611549565b6001600160a01b0381163b6114ef5760405162461bcd60e51b815260206004820152602d60248201527f455243313936373a206e657720696d706c656d656e746174696f6e206973206e60448201526c1bdd08184818dbdb9d1c9858dd609a1b606482015260840161055c565b600080516020611d3683398151915280546001600160a01b0319166001600160a01b0392909216919091179055565b61152783611579565b6000825111806115345750805b1561125c5761154383836115b9565b50505050565b600054610100900460ff166115705760405162461bcd60e51b815260040161055c90611c6f565b610e1333611401565b61158281611482565b6040516001600160a01b038216907fbc7cd75a20ee27fd9adebab32041f755214dbc6bffa90cc0225b39da2e5c2d3b90600090a250565b60606001600160a01b0383163b6116215760405162461bcd60e51b815260206004820152602660248201527f416464726573733a2064656c65676174652063616c6c20746f206e6f6e2d636f6044820152651b9d1c9858dd60d21b606482015260840161055c565b600080846001600160a01b03168460405161163c9190611ce6565b600060405180830381855af49150503d8060008114611677576040519150601f19603f3d011682016040523d82523d6000602084013e61167c565b606091505b50915091506116a48282604051806060016040528060278152602001611d56602791396116ad565b95945050505050565b606083156116bc5750816113c9565b8251156116cc5782518084602001fd5b8160405162461bcd60e51b815260040161055c9190611d02565b6020808252825182820181905260009190848201906040850190845b818110156117275783516001600160a01b031683529284019291840191600101611702565b50909695505050505050565b6001600160a01b03811681146105f957600080fd5b634e487b7160e01b600052604160045260246000fd5b600082601f83011261176f57600080fd5b813567ffffffffffffffff8082111561178a5761178a611748565b604051601f8301601f19908116603f011681019082821181831017156117b2576117b2611748565b816040528381528660208588010111156117cb57600080fd5b836020870160208301376000602085830101528094505050505092915050565b6000806000806080858703121561180157600080fd5b843561180c81611733565b9350602085013561181c81611733565b925060408501359150606085013567ffffffffffffffff81111561183f57600080fd5b61184b8782880161175e565b91505092959194509250565b60006020828403121561186957600080fd5b81356113c981611733565b6020808252825182820181905260009190848201906040850190845b8181101561172757835183529284019291840191600101611890565b600080604083850312156118bf57600080fd5b82356118ca81611733565b9150602083013567ffffffffffffffff8111156118e657600080fd5b6118f28582860161175e565b9150509250929050565b60008060006060848603121561191157600080fd5b833561191c81611733565b95602085013595506040909401359392505050565b80151581146105f957600080fd5b60008060006060848603121561195457600080fd5b833561195f81611733565b925060208401359150604084013561197681611931565b809150509250925092565b600080600080600060a0868803121561199957600080fd5b85356119a481611733565b97602087013597506040870135966060810135965060800135945092505050565b600080604083850312156119d857600080fd5b82356119e381611733565b946020939093013593505050565b600080600080600060a08688031215611a0957600080fd5b8535611a1481611733565b94506020860135935060408601359250606086013591506080860135611a3981611931565b809150509295509295909350565b60008060008060808587031215611a5d57600080fd5b8435611a6881611733565b966020860135965060408601359560600135945092505050565b6020808252602c908201527f46756e6374696f6e206d7573742062652063616c6c6564207468726f7567682060408201526b19195b1959d85d1958d85b1b60a21b606082015260800190565b6020808252602c908201527f46756e6374696f6e206d7573742062652063616c6c6564207468726f7567682060408201526b6163746976652070726f787960a01b606082015260800190565b60208082526022908201527f546f6b656e206973206e6f7420617661696c61626c6520666f7220617563746960408201526137b760f11b606082015260800190565b6001600160a01b039384168152919092166020820152604081019190915260600190565b600060208284031215611b9257600080fd5b81516113c981611931565b6020808252818101527f4f776e61626c653a2063616c6c6572206973206e6f7420746865206f776e6572604082015260600190565b600060208284031215611be457600080fd5b5051919050565b634e487b7160e01b600052601160045260246000fd5b6000816000190483118215151615611c1b57611c1b611beb565b500290565b600082611c3d57634e487b7160e01b600052601260045260246000fd5b500490565b634e487b7160e01b600052600160045260246000fd5b600082821015611c6a57611c6a611beb565b500390565b6020808252602b908201527f496e697469616c697a61626c653a20636f6e7472616374206973206e6f74206960408201526a6e697469616c697a696e6760a81b606082015260800190565b60005b83811015611cd5578181015183820152602001611cbd565b838111156115435750506000910152565b60008251611cf8818460208701611cba565b9190910192915050565b6020815260008251806020840152611d21816040850160208701611cba565b601f01601f1916919091016040019291505056fe360894a13ba1a3210667c828492db98dca3e2076cc3735a920a3ca505d382bbc416464726573733a206c6f772d6c6576656c2064656c65676174652063616c6c206661696c6564a26469706673582212206eefde0d8e5ab31ad3456fba298566e095cca67584b23be92287c93a6578962964736f6c634300080b0033",
  "linkReferences": {},
  "deployedLinkReferences": {}
}