{
  "_format": "hh-sol-artifact-1",
  "contractName": "NFTBase",
  "sourceName": "contracts/NFTBase.sol",
  "abi": [
    {
      "anonymous": false,
      "inputs": [
        {
          "indexed": false,
          "internalType": "address",
          "name": "previousAdmin",
          "type": "address"
        },
        {
          "indexed": false,
          "internalType": "address",
          "name": "newAdmin",
          "type": "address"
        }
      ],
      "name": "AdminChanged",
      "type": "event"
    },
    {
      "anonymous": false,
      "inputs": [
        {
          "indexed": true,
          "internalType": "address",
          "name": "owner",
          "type": "address"
        },
        {
          "indexed": true,
          "internalType": "address",
          "name": "approved",
          "type": "address"
        },
        {
          "indexed": true,
          "internalType": "uint256",
          "name": "tokenId",
          "type": "uint256"
        }
      ],
      "name": "Approval",
      "type": "event"
    },
    {
      "anonymous": false,
      "inputs": [
        {
          "indexed": true,
          "internalType": "address",
          "name": "owner",
          "type": "address"
        },
        {
          "indexed": true,
          "internalType": "address",
          "name": "operator",
          "type": "address"
        },
        {
          "indexed": false,
          "internalType": "bool",
          "name": "approved",
          "type": "bool"
        }
      ],
      "name": "ApprovalForAll",
      "type": "event"
    },
    {
      "anonymous": false,
      "inputs": [
        {
          "indexed": true,
          "internalType": "address",
          "name": "beacon",
          "type": "address"
        }
      ],
      "name": "BeaconUpgraded",
      "type": "event"
    },
    {
      "anonymous": false,
      "inputs": [
        {
          "indexed": true,
          "internalType": "address",
          "name": "previousOwner",
          "type": "address"
        },
        {
          "indexed": true,
          "internalType": "address",
          "name": "newOwner",
          "type": "address"
        }
      ],
      "name": "OwnershipTransferred",
      "type": "event"
    },
    {
      "anonymous": false,
      "inputs": [
        {
          "indexed": true,
          "internalType": "address",
          "name": "from",
          "type": "address"
        },
        {
          "indexed": true,
          "internalType": "address",
          "name": "to",
          "type": "address"
        },
        {
          "indexed": true,
          "internalType": "uint256",
          "name": "tokenId",
          "type": "uint256"
        }
      ],
      "name": "Transfer",
      "type": "event"
    },
    {
      "anonymous": false,
      "inputs": [
        {
          "indexed": true,
          "internalType": "address",
          "name": "implementation",
          "type": "address"
        }
      ],
      "name": "Upgraded",
      "type": "event"
    },
    {
      "inputs": [
        {
          "internalType": "address",
          "name": "to",
          "type": "address"
        },
        {
          "internalType": "uint256",
          "name": "tokenId",
          "type": "uint256"
        }
      ],
      "name": "approve",
      "outputs": [],
      "stateMutability": "nonpayable",
      "type": "function"
    },
    {
      "inputs": [
        {
          "internalType": "address",
          "name": "owner",
          "type": "address"
        }
      ],
      "name": "balanceOf",
      "outputs": [
        {
          "internalType": "uint256",
          "name": "",
          "type": "uint256"
        }
      ],
      "stateMutability": "view",
      "type": "function"
    },
    {
      "inputs": [
        {
          "internalType": "uint256",
          "name": "tokenId",
          "type": "uint256"
        }
      ],
      "name": "getApproved",
      "outputs": [
        {
          "internalType": "address",
          "name": "",
          "type": "address"
        }
      ],
      "stateMutability": "view",
      "type": "function"
    },
    {
      "inputs": [],
      "name": "initialize",
      "outputs": [],
      "stateMutability": "nonpayable",
      "type": "function"
    },
    {
      "inputs": [
        {
          "internalType": "address",
          "name": "owner",
          "type": "address"
        },
        {
          "internalType": "address",
          "name": "operator",
          "type": "address"
        }
      ],
      "name": "isApprovedForAll",
      "outputs": [
        {
          "internalType": "bool",
          "name": "",
          "type": "bool"
        }
      ],
      "stateMutability": "view",
      "type": "function"
    },
    {
      "inputs": [
        {
          "internalType": "address",
          "name": "_userAddress",
          "type": "address"
        }
      ],
      "name": "mint",
      "outputs": [],
      "stateMutability": "nonpayable",
      "type": "function"
    },
    {
      "inputs": [],
      "name": "name",
      "outputs": [
        {
          "internalType": "string",
          "name": "",
          "type": "string"
        }
      ],
      "stateMutability": "view",
      "type": "function"
    },
    {
      "inputs": [],
      "name": "owner",
      "outputs": [
        {
          "internalType": "address",
          "name": "",
          "type": "address"
        }
      ],
      "stateMutability": "view",
      "type": "function"
    },
    {
      "inputs": [
        {
          "internalType": "uint256",
          "name": "tokenId",
          "type": "uint256"
        }
      ],
      "name": "ownerOf",
      "outputs": [
        {
          "internalType": "address",
          "name": "",
          "type": "address"
        }
      ],
      "stateMutability": "view",
      "type": "function"
    },
    {
      "inputs": [],
      "name": "proxiableUUID",
      "outputs": [
        {
          "internalType": "bytes32",
          "name": "",
          "type": "bytes32"
        }
      ],
      "stateMutability": "view",
      "type": "function"
    },
    {
      "inputs": [],
      "name": "renounceOwnership",
      "outputs": [],
      "stateMutability": "nonpayable",
      "type": "function"
    },
    {
      "inputs": [
        {
          "internalType": "address",
          "name": "from",
          "type": "address"
        },
        {
          "internalType": "address",
          "name": "to",
          "type": "address"
        },
        {
          "internalType": "uint256",
          "name": "tokenId",
          "type": "uint256"
        }
      ],
      "name": "safeTransferFrom",
      "outputs": [],
      "stateMutability": "nonpayable",
      "type": "function"
    },
    {
      "inputs": [
        {
          "internalType": "address",
          "name": "from",
          "type": "address"
        },
        {
          "internalType": "address",
          "name": "to",
          "type": "address"
        },
        {
          "internalType": "uint256",
          "name": "tokenId",
          "type": "uint256"
        },
        {
          "internalType": "bytes",
          "name": "_data",
          "type": "bytes"
        }
      ],
      "name": "safeTransferFrom",
      "outputs": [],
      "stateMutability": "nonpayable",
      "type": "function"
    },
    {
      "inputs": [
        {
          "internalType": "address",
          "name": "operator",
          "type": "address"
        },
        {
          "internalType": "bool",
          "name": "approved",
          "type": "bool"
        }
      ],
      "name": "setApprovalForAll",
      "outputs": [],
      "stateMutability": "nonpayable",
      "type": "function"
    },
    {
      "inputs": [
        {
          "internalType": "bytes4",
          "name": "interfaceId",
          "type": "bytes4"
        }
      ],
      "name": "supportsInterface",
      "outputs": [
        {
          "internalType": "bool",
          "name": "",
          "type": "bool"
        }
      ],
      "stateMutability": "view",
      "type": "function"
    },
    {
      "inputs": [],
      "name": "symbol",
      "outputs": [
        {
          "internalType": "string",
          "name": "",
          "type": "string"
        }
      ],
      "stateMutability": "view",
      "type": "function"
    },
    {
      "inputs": [
        {
          "internalType": "uint256",
          "name": "tokenId",
          "type": "uint256"
        }
      ],
      "name": "tokenURI",
      "outputs": [
        {
          "internalType": "string",
          "name": "",
          "type": "string"
        }
      ],
      "stateMutability": "view",
      "type": "function"
    },
    {
      "inputs": [
        {
          "internalType": "address",
          "name": "from",
          "type": "address"
        },
        {
          "internalType": "address",
          "name": "to",
          "type": "address"
        },
        {
          "internalType": "uint256",
          "name": "tokenId",
          "type": "uint256"
        }
      ],
      "name": "transferFrom",
      "outputs": [],
      "stateMutability": "nonpayable",
      "type": "function"
    },
    {
      "inputs": [
        {
          "internalType": "address",
          "name": "newOwner",
          "type": "address"
        }
      ],
      "name": "transferOwnership",
      "outputs": [],
      "stateMutability": "nonpayable",
      "type": "function"
    },
    {
      "inputs": [
        {
          "internalType": "address",
          "name": "newImplementation",
          "type": "address"
        }
      ],
      "name": "upgradeTo",
      "outputs": [],
      "stateMutability": "nonpayable",
      "type": "function"
    },
    {
      "inputs": [
        {
          "internalType": "address",
          "name": "newImplementation",
          "type": "address"
        },
        {
          "internalType": "bytes",
          "name": "data",
          "type": "bytes"
        }
      ],
      "name": "upgradeToAndCall",
      "outputs": [],
      "stateMutability": "payable",
      "type": "function"
    }
  ],
  "bytecode": "0x60a06040523060805234801561001457600080fd5b5060805161217461004c600039600081816106cc0152818161070c015281816107c701528181610807015261089a01526121746000f3fe60806040526004361061012a5760003560e01c80636a627842116100ab57806395d89b411161006f57806395d89b411461031e578063a22cb46514610333578063b88d4fde14610353578063c87b56dd14610373578063e985e9c514610393578063f2fde38b146103dc57600080fd5b80636a6278421461029657806370a08231146102b6578063715018a6146102d65780638129fc1c146102eb5780638da5cb5b1461030057600080fd5b80633659cfe6116100f25780633659cfe61461020057806342842e0e146102205780634f1ef2861461024057806352d1902d146102535780636352211e1461027657600080fd5b806301ffc9a71461012f57806306fdde0314610164578063081812fc14610186578063095ea7b3146101be57806323b872dd146101e0575b600080fd5b34801561013b57600080fd5b5061014f61014a366004611a89565b6103fc565b60405190151581526020015b60405180910390f35b34801561017057600080fd5b5061017961044e565b60405161015b9190611afe565b34801561019257600080fd5b506101a66101a1366004611b11565b6104e0565b6040516001600160a01b03909116815260200161015b565b3480156101ca57600080fd5b506101de6101d9366004611b46565b61057a565b005b3480156101ec57600080fd5b506101de6101fb366004611b70565b610690565b34801561020c57600080fd5b506101de61021b366004611bac565b6106c1565b34801561022c57600080fd5b506101de61023b366004611b70565b6107a1565b6101de61024e366004611c6a565b6107bc565b34801561025f57600080fd5b5061026861088d565b60405190815260200161015b565b34801561028257600080fd5b506101a6610291366004611b11565b610940565b3480156102a257600080fd5b506101de6102b1366004611bac565b6109b7565b3480156102c257600080fd5b506102686102d1366004611bac565b6109df565b3480156102e257600080fd5b506101de610a66565b3480156102f757600080fd5b506101de610a9c565b34801561030c57600080fd5b5060fb546001600160a01b03166101a6565b34801561032a57600080fd5b50610179610ba1565b34801561033f57600080fd5b506101de61034e366004611cb8565b610bb0565b34801561035f57600080fd5b506101de61036e366004611cf4565b610bbb565b34801561037f57600080fd5b5061017961038e366004611b11565b610bf3565b34801561039f57600080fd5b5061014f6103ae366004611d5c565b6001600160a01b039182166000908152606a6020908152604080832093909416825291909152205460ff1690565b3480156103e857600080fd5b506101de6103f7366004611bac565b610cdb565b60006001600160e01b031982166380ac58cd60e01b148061042d57506001600160e01b03198216635b5e139f60e01b145b8061044857506301ffc9a760e01b6001600160e01b03198316145b92915050565b60606065805461045d90611d8f565b80601f016020809104026020016040519081016040528092919081815260200182805461048990611d8f565b80156104d65780601f106104ab576101008083540402835291602001916104d6565b820191906000526020600020905b8154815290600101906020018083116104b957829003601f168201915b5050505050905090565b6000818152606760205260408120546001600160a01b031661055e5760405162461bcd60e51b815260206004820152602c60248201527f4552433732313a20617070726f76656420717565727920666f72206e6f6e657860448201526b34b9ba32b73a103a37b5b2b760a11b60648201526084015b60405180910390fd5b506000908152606960205260409020546001600160a01b031690565b600061058582610940565b9050806001600160a01b0316836001600160a01b031614156105f35760405162461bcd60e51b815260206004820152602160248201527f4552433732313a20617070726f76616c20746f2063757272656e74206f776e656044820152603960f91b6064820152608401610555565b336001600160a01b038216148061060f575061060f81336103ae565b6106815760405162461bcd60e51b815260206004820152603860248201527f4552433732313a20617070726f76652063616c6c6572206973206e6f74206f7760448201527f6e6572206e6f7220617070726f76656420666f7220616c6c00000000000000006064820152608401610555565b61068b8383610d73565b505050565b61069a3382610de1565b6106b65760405162461bcd60e51b815260040161055590611dca565b61068b838383610ed8565b306001600160a01b037f000000000000000000000000000000000000000000000000000000000000000016141561070a5760405162461bcd60e51b815260040161055590611e1b565b7f00000000000000000000000000000000000000000000000000000000000000006001600160a01b03166107536000805160206120f8833981519152546001600160a01b031690565b6001600160a01b0316146107795760405162461bcd60e51b815260040161055590611e67565b61078281611074565b6040805160008082526020820190925261079e9183919061109e565b50565b61068b83838360405180602001604052806000815250610bbb565b306001600160a01b037f00000000000000000000000000000000000000000000000000000000000000001614156108055760405162461bcd60e51b815260040161055590611e1b565b7f00000000000000000000000000000000000000000000000000000000000000006001600160a01b031661084e6000805160206120f8833981519152546001600160a01b031690565b6001600160a01b0316146108745760405162461bcd60e51b815260040161055590611e67565b61087d82611074565b6108898282600161109e565b5050565b6000306001600160a01b037f0000000000000000000000000000000000000000000000000000000000000000161461092d5760405162461bcd60e51b815260206004820152603860248201527f555550535570677261646561626c653a206d757374206e6f742062652063616c60448201527f6c6564207468726f7567682064656c656761746563616c6c00000000000000006064820152608401610555565b506000805160206120f883398151915290565b6000818152606760205260408120546001600160a01b0316806104485760405162461bcd60e51b815260206004820152602960248201527f4552433732313a206f776e657220717565727920666f72206e6f6e657869737460448201526832b73a103a37b5b2b760b91b6064820152608401610555565b61079e816001604051806040016040528060048152602001630307830360e41b815250611209565b60006001600160a01b038216610a4a5760405162461bcd60e51b815260206004820152602a60248201527f4552433732313a2062616c616e636520717565727920666f7220746865207a65604482015269726f206164647265737360b01b6064820152608401610555565b506001600160a01b031660009081526068602052604090205490565b60fb546001600160a01b03163314610a905760405162461bcd60e51b815260040161055590611eb3565b610a9a600061123c565b565b600054610100900460ff16610ab75760005460ff1615610abb565b303b155b610b1e5760405162461bcd60e51b815260206004820152602e60248201527f496e697469616c697a61626c653a20636f6e747261637420697320616c72656160448201526d191e481a5b9a5d1a585b1a5e995960921b6064820152608401610555565b600054610100900460ff16158015610b40576000805461ffff19166101011790555b610b85604051806040016040528060078152602001664e46544261736560c81b8152506040518060400160405280600481526020016327232a2160e11b81525061128e565b610b8d6112bf565b801561079e576000805461ff001916905550565b60606066805461045d90611d8f565b6108893383836112ee565b610bc53383610de1565b610be15760405162461bcd60e51b815260040161055590611dca565b610bed848484846113bd565b50505050565b6000818152606760205260409020546060906001600160a01b0316610c725760405162461bcd60e51b815260206004820152602f60248201527f4552433732314d657461646174613a2055524920717565727920666f72206e6f60448201526e3732bc34b9ba32b73a103a37b5b2b760891b6064820152608401610555565b6000610c8960408051602081019091526000815290565b90506000815111610ca95760405180602001604052806000815250610cd4565b80610cb3846113f0565b604051602001610cc4929190611ee8565b6040516020818303038152906040525b9392505050565b60fb546001600160a01b03163314610d055760405162461bcd60e51b815260040161055590611eb3565b6001600160a01b038116610d6a5760405162461bcd60e51b815260206004820152602660248201527f4f776e61626c653a206e6577206f776e657220697320746865207a65726f206160448201526564647265737360d01b6064820152608401610555565b61079e8161123c565b600081815260696020526040902080546001600160a01b0319166001600160a01b0384169081179091558190610da882610940565b6001600160a01b03167f8c5be1e5ebec7d5bd14f71427d1e84f3dd0314c0f7b2291e5b200ac8c7c3b92560405160405180910390a45050565b6000818152606760205260408120546001600160a01b0316610e5a5760405162461bcd60e51b815260206004820152602c60248201527f4552433732313a206f70657261746f7220717565727920666f72206e6f6e657860448201526b34b9ba32b73a103a37b5b2b760a11b6064820152608401610555565b6000610e6583610940565b9050806001600160a01b0316846001600160a01b03161480610ea05750836001600160a01b0316610e95846104e0565b6001600160a01b0316145b80610ed057506001600160a01b038082166000908152606a602090815260408083209388168352929052205460ff165b949350505050565b826001600160a01b0316610eeb82610940565b6001600160a01b031614610f4f5760405162461bcd60e51b815260206004820152602560248201527f4552433732313a207472616e736665722066726f6d20696e636f72726563742060448201526437bbb732b960d91b6064820152608401610555565b6001600160a01b038216610fb15760405162461bcd60e51b8152602060048201526024808201527f4552433732313a207472616e7366657220746f20746865207a65726f206164646044820152637265737360e01b6064820152608401610555565b610fbc600082610d73565b6001600160a01b0383166000908152606860205260408120805460019290610fe5908490611f2d565b90915550506001600160a01b0382166000908152606860205260408120805460019290611013908490611f44565b909155505060008181526067602052604080822080546001600160a01b0319166001600160a01b0386811691821790925591518493918716917fddf252ad1be2c89b69c2b068fc378daa952ba7f163c4a11628f55a4df523b3ef91a4505050565b60fb546001600160a01b0316331461079e5760405162461bcd60e51b815260040161055590611eb3565b7f4910fdfa16fed3260ed0e7147f7cc6da11a60208b5b9406d12a635614ffd91435460ff16156110d15761068b836114ee565b826001600160a01b03166352d1902d6040518163ffffffff1660e01b8152600401602060405180830381865afa92505050801561112b575060408051601f3d908101601f1916820190925261112891810190611f5c565b60015b61118e5760405162461bcd60e51b815260206004820152602e60248201527f45524331393637557067726164653a206e657720696d706c656d656e7461746960448201526d6f6e206973206e6f74205555505360901b6064820152608401610555565b6000805160206120f883398151915281146111fd5760405162461bcd60e51b815260206004820152602960248201527f45524331393637557067726164653a20756e737570706f727465642070726f786044820152681a58589b195555525160ba1b6064820152608401610555565b5061068b83838361158a565b61121383836115af565b61122060008484846116f1565b61068b5760405162461bcd60e51b815260040161055590611f75565b60fb80546001600160a01b038381166001600160a01b0319831681179093556040519116919082907f8be0079c531659141344cd1fd0a4f28419497f9722a3daafe3b4186f6b6457e090600090a35050565b600054610100900460ff166112b55760405162461bcd60e51b815260040161055590611fc7565b61088982826117ef565b600054610100900460ff166112e65760405162461bcd60e51b815260040161055590611fc7565b610a9a61183d565b816001600160a01b0316836001600160a01b031614156113505760405162461bcd60e51b815260206004820152601960248201527f4552433732313a20617070726f766520746f2063616c6c6572000000000000006044820152606401610555565b6001600160a01b038381166000818152606a6020908152604080832094871680845294825291829020805460ff191686151590811790915591519182527f17307eab39ab6107e8899845ad3d59bd9653f200f220920489ca2b5937696c31910160405180910390a3505050565b6113c8848484610ed8565b6113d4848484846116f1565b610bed5760405162461bcd60e51b815260040161055590611f75565b6060816114145750506040805180820190915260018152600360fc1b602082015290565b8160005b811561143e578061142881612012565b91506114379050600a83612043565b9150611418565b60008167ffffffffffffffff81111561145957611459611bc7565b6040519080825280601f01601f191660200182016040528015611483576020820181803683370190505b5090505b8415610ed057611498600183611f2d565b91506114a5600a86612057565b6114b0906030611f44565b60f81b8183815181106114c5576114c561206b565b60200101906001600160f81b031916908160001a9053506114e7600a86612043565b9450611487565b6001600160a01b0381163b61155b5760405162461bcd60e51b815260206004820152602d60248201527f455243313936373a206e657720696d706c656d656e746174696f6e206973206e60448201526c1bdd08184818dbdb9d1c9858dd609a1b6064820152608401610555565b6000805160206120f883398151915280546001600160a01b0319166001600160a01b0392909216919091179055565b6115938361186d565b6000825111806115a05750805b1561068b57610bed83836118ad565b6001600160a01b0382166116055760405162461bcd60e51b815260206004820181905260248201527f4552433732313a206d696e7420746f20746865207a65726f20616464726573736044820152606401610555565b6000818152606760205260409020546001600160a01b03161561166a5760405162461bcd60e51b815260206004820152601c60248201527f4552433732313a20746f6b656e20616c7265616479206d696e746564000000006044820152606401610555565b6001600160a01b0382166000908152606860205260408120805460019290611693908490611f44565b909155505060008181526067602052604080822080546001600160a01b0319166001600160a01b03861690811790915590518392907fddf252ad1be2c89b69c2b068fc378daa952ba7f163c4a11628f55a4df523b3ef908290a45050565b60006001600160a01b0384163b156117e457604051630a85bd0160e11b81526001600160a01b0385169063150b7a0290611735903390899088908890600401612081565b6020604051808303816000875af1925050508015611770575060408051601f3d908101601f1916820190925261176d918101906120be565b60015b6117ca573d80801561179e576040519150601f19603f3d011682016040523d82523d6000602084013e6117a3565b606091505b5080516117c25760405162461bcd60e51b815260040161055590611f75565b805181602001fd5b6001600160e01b031916630a85bd0160e11b149050610ed0565b506001949350505050565b600054610100900460ff166118165760405162461bcd60e51b815260040161055590611fc7565b81516118299060659060208501906119da565b50805161068b9060669060208401906119da565b600054610100900460ff166118645760405162461bcd60e51b815260040161055590611fc7565b610a9a3361123c565b611876816114ee565b6040516001600160a01b038216907fbc7cd75a20ee27fd9adebab32041f755214dbc6bffa90cc0225b39da2e5c2d3b90600090a250565b60606001600160a01b0383163b6119155760405162461bcd60e51b815260206004820152602660248201527f416464726573733a2064656c65676174652063616c6c20746f206e6f6e2d636f6044820152651b9d1c9858dd60d21b6064820152608401610555565b600080846001600160a01b03168460405161193091906120db565b600060405180830381855af49150503d806000811461196b576040519150601f19603f3d011682016040523d82523d6000602084013e611970565b606091505b50915091506119988282604051806060016040528060278152602001612118602791396119a1565b95945050505050565b606083156119b0575081610cd4565b8251156119c05782518084602001fd5b8160405162461bcd60e51b81526004016105559190611afe565b8280546119e690611d8f565b90600052602060002090601f016020900481019282611a085760008555611a4e565b82601f10611a2157805160ff1916838001178555611a4e565b82800160010185558215611a4e579182015b82811115611a4e578251825591602001919060010190611a33565b50611a5a929150611a5e565b5090565b5b80821115611a5a5760008155600101611a5f565b6001600160e01b03198116811461079e57600080fd5b600060208284031215611a9b57600080fd5b8135610cd481611a73565b60005b83811015611ac1578181015183820152602001611aa9565b83811115610bed5750506000910152565b60008151808452611aea816020860160208601611aa6565b601f01601f19169290920160200192915050565b602081526000610cd46020830184611ad2565b600060208284031215611b2357600080fd5b5035919050565b80356001600160a01b0381168114611b4157600080fd5b919050565b60008060408385031215611b5957600080fd5b611b6283611b2a565b946020939093013593505050565b600080600060608486031215611b8557600080fd5b611b8e84611b2a565b9250611b9c60208501611b2a565b9150604084013590509250925092565b600060208284031215611bbe57600080fd5b610cd482611b2a565b634e487b7160e01b600052604160045260246000fd5b600082601f830112611bee57600080fd5b813567ffffffffffffffff80821115611c0957611c09611bc7565b604051601f8301601f19908116603f01168101908282118183101715611c3157611c31611bc7565b81604052838152866020858801011115611c4a57600080fd5b836020870160208301376000602085830101528094505050505092915050565b60008060408385031215611c7d57600080fd5b611c8683611b2a565b9150602083013567ffffffffffffffff811115611ca257600080fd5b611cae85828601611bdd565b9150509250929050565b60008060408385031215611ccb57600080fd5b611cd483611b2a565b915060208301358015158114611ce957600080fd5b809150509250929050565b60008060008060808587031215611d0a57600080fd5b611d1385611b2a565b9350611d2160208601611b2a565b925060408501359150606085013567ffffffffffffffff811115611d4457600080fd5b611d5087828801611bdd565b91505092959194509250565b60008060408385031215611d6f57600080fd5b611d7883611b2a565b9150611d8660208401611b2a565b90509250929050565b600181811c90821680611da357607f821691505b60208210811415611dc457634e487b7160e01b600052602260045260246000fd5b50919050565b60208082526031908201527f4552433732313a207472616e736665722063616c6c6572206973206e6f74206f6040820152701ddb995c881b9bdc88185c1c1c9bdd9959607a1b606082015260800190565b6020808252602c908201527f46756e6374696f6e206d7573742062652063616c6c6564207468726f7567682060408201526b19195b1959d85d1958d85b1b60a21b606082015260800190565b6020808252602c908201527f46756e6374696f6e206d7573742062652063616c6c6564207468726f7567682060408201526b6163746976652070726f787960a01b606082015260800190565b6020808252818101527f4f776e61626c653a2063616c6c6572206973206e6f7420746865206f776e6572604082015260600190565b60008351611efa818460208801611aa6565b835190830190611f0e818360208801611aa6565b01949350505050565b634e487b7160e01b600052601160045260246000fd5b600082821015611f3f57611f3f611f17565b500390565b60008219821115611f5757611f57611f17565b500190565b600060208284031215611f6e57600080fd5b5051919050565b60208082526032908201527f4552433732313a207472616e7366657220746f206e6f6e20455243373231526560408201527131b2b4bb32b91034b6b83632b6b2b73a32b960711b606082015260800190565b6020808252602b908201527f496e697469616c697a61626c653a20636f6e7472616374206973206e6f74206960408201526a6e697469616c697a696e6760a81b606082015260800190565b600060001982141561202657612026611f17565b5060010190565b634e487b7160e01b600052601260045260246000fd5b6000826120525761205261202d565b500490565b6000826120665761206661202d565b500690565b634e487b7160e01b600052603260045260246000fd5b6001600160a01b03858116825284166020820152604081018390526080606082018190526000906120b490830184611ad2565b9695505050505050565b6000602082840312156120d057600080fd5b8151610cd481611a73565b600082516120ed818460208701611aa6565b919091019291505056fe360894a13ba1a3210667c828492db98dca3e2076cc3735a920a3ca505d382bbc416464726573733a206c6f772d6c6576656c2064656c65676174652063616c6c206661696c6564a2646970667358221220fa415ca10cf036b35095862ced7020773b094db3bdc8735052c81c613a7af39f64736f6c634300080b0033",
  "linkReferences": {},
  "deployedLinkReferences": {}
}